:1019F10000A8C0003F065B4F666D7D077F6F000842
:101A010040014148BF86DBCFE6EDFD87FFEF777CE4
:011A1100399B
:100E85000125AA0137AA032BAAE1000331AAE20032
:0A0E9500032EAAD1000334AAD200F4
:101A4D00121ACCEF700BFB7A00792B7D03FC121967
:0A1A5D004C752901E4F52AF53A2240
:101A6700121ACCEF700BFB7A0079317D03FC121947
:0A1A77004CE4F529752A01F53A2226
:1019CE008B3B8A3C893D121AD7EF7016AB3BAA3C73
:1019DE00A93D7D03FC1219A6EF640360057F011279
:0319EE001B1A229F
:10185700E52264AA702BE523B40112E529600EE4A2
:10186700F529FB7A0079221219CE021A67E523B40B
:10187700020FE52A600BE4F52AFB7A007922121998
:02188700CE226F
:10191C00E52664AA7029E527B4D110AF28EFD3943B
:10192C000340027F038F3075380122E527B4D20FB4
:0F193C00AF28EFD3940340027F038F3675390134
:01194B002279
:1015F500053AE529600DE53AC394034006E4F5296B
:10160500021A67E52A600DE53AC394044006E4F53D
:101615002AF53A22E5297046E52A7042E53AC3944F
:1016250002403BE538601A121ACCEF7014FB7A00C1
:10163500792E7D03FC12194CEF64036021E4F53823
:1016450022E5396019121ACCEF7013FB7A00793450
:0F1655007D03FC12194CEF64036003E4F53922A6
:031B2600021A4D53
:1011FE00121A327D07E4FF121AEBE4FF121B1A7566
:10120E003E0A753F0A75400A75410A75420A7B0A05
:10121E007D0A7F1C121A127F981218897F807E25F4
:10122E007D007C0012157E753F017F807E257D003E
:10123E007C001211497540007541007542377543A7
:10124E00007544017B007A0079267D037C0012181C
:10125E00EB754000754100754225754300754401DC
:10126E007B007A0079227D037C001218BA7BFF7A0C
:10127E001579F57F011215017BFF7A1B79267F0206
:10128E001215017BFF7A19791C7F091215017BFF5C
:10129E007A1879577F0A121501121B20121819801D
:0112AE00FB44
:091AE2008B88898C88898F888922
:100E9F0052007A86860086860086860086860086C1
:090EAF00860086860041006F09EF
:03002B00021B14A1
:061B140053BCEFD20F32BA
:020BA9001545F0
:100BAB00200F03020D52C20F90006EE0B4090040FB
:100BBB0003020D34900BC6F8282873020C0D020BA0
:100BCB00E1020BF3020C1F020BE1020BF3020C36DA
:100BDB00020BE1020BF3AFBDEFFEADBE7C00E42DCB
:100BEB00FFEC3E900070803CAFBDEFFEADBE7C00D5
:100BFB00E42DFFEC3E900072F0A3EFF0751A0102AA
:100C0B000D3AAFBDEFFEADBE7C00E42DFFEC3E9088
:100C1B0000748010AFBDEFFEADBE7C00E42DFFEC89
:100C2B003E900076F0A3EFF0020D3AAFBDEFFEADB4
:100C3B00BE7C00E42DFFEC3E900078F0A3EFF0902B
:100C4B000078E0FEA3E07807CEC313CE13D8F9A843
:100C5B0045F6C394065013A845E675F003A4247A11
:100C6B00F582E43400F583E014F090006FE014F0AB
:100C7B006003020D3A7409F0A845E4F6A845E6FFB7
:100C8B00C394064003020D3AEF75F003A4247AF5E2
:100C9B0082E43400F583E0C39480502AE6FF75F0BC
:100CAB0003A4247BF582E43400F583E0D3948040E5
:100CBB0040EF75F003A4247CF582E43400F58374D3
:100CCB0001F0F51B802BA845E6FF75F003A4247BF0
:100CDB00F582E43400F583E0C394805014EF75F093
:100CEB0003A4247CF582E43400F5837402F0751BB5
:100CFB0001A845E6FF75F003A4247AF582E43400DD
:100D0B00F583E0FEEF75F003A4247BF582E4340059
:100D1B00F583EEF0E675F003A4247AF582E4340053
:100D2B00F5837486F006020C8790006E74FFF090CA
:100D3B00006EE0D39407400374FFF090006EE00464
:070D4B00F0901AE293F5BCE1
:030D520005452232
:021AB0001545DA
:091AB200A845A61BE4F51BE6FFA4
:031ABB00054522BC
:021ABE001545CC
:091AC000A845A61AE4F51AE6FF98
:031AC900054522AE
:101889008F9D75BC88439720D2AD90004574FFF0B9
:10189900A3740BF0A374A9F0A374FFF0A3741AF056
:1018A900A374B0F0A374FFF0A3741AF0A374BEF08C
:0118B900220C
:071B06007B017A00797022D7
:10175000C3EF64809480403BD3EF64809485503322
:10176000EFFD3395E0FC90007C75F003ED1209C5A8
:10177000EC75F003A42583F583E0FE90007C75F002
:1017800003ED1209C5EC75F003A42583F583E4F09D
:05179000AF06227F03FB
:011795002231
:10106000E4F5809000C1E0FFB40800505F90107478
:10107000F828287302108C02109202109802109E19
:101080000210A40210AE0210B80210C2C2A3C2A283
:101090008016C2A3C2A2801AC2A3C2A2801EC2A38B
:1010A000C2A28022C2A3D2A2C2A1C2A08020C2A397
:1010B000D2A2C2A1D2A08016C2A3D2A2D2A1C2A0A3
:1010C000800CC2A3D2A2D2A1D2A08002D2A3C3EF2D
:1010D0006480948850299000C1E0FF3395E0FE744D
:1010E000B82FF58274003EF583E0FF3395E0FE747F
:1010F000F52FF58274193EF583E493F580801E90F8
:1011000000C1E0FFB408133395E0FE74B82FF582F8
:1011100074003EF583E0F5808003E4F5809000B72D
:10112000E0FF9000C1E004FEF0D3EF6480F8EE64CD
:1011300080984014E0D36480948850047408F022AE
:091140009000B6E09000C1F0221D
:101A3200E4F5937594FF5395F043960F90002A7442
:0B1A4200FFF0A37410F0A37460F0220A
:091AEB009000B6EFF0A3EDF0222B
:101A12009000B8EFF0A3EDF0A3EBF0A3E53EF0A346
:101A2200E53FF0A3E540F0A3E541F0A3E542F02253
:061B1A009000C0EFF02274
:100EB8004100000A4100290A41006D0A040E0000A1
:100EC80000000114004600670000FFFF8FFFC10DFE
:100ED800C105C108C101C10E60240005FF1B2FFF19
:100EE8001B2FFF1B2FFF1B2FFF1B2FFF1B2FFF1B72
:100EF8002FFF1B2FFF1B2FFF1B2FFF1B2FFF1B2F4E
:100F08006036002AFF1B2FFF1B2FFF1B29FF1B2FFB
:100F1800FF1B29FF1B2FFF1B29FF1B2FFF1B2FFF69
:100F28001B2FFF1B29FF1B29FF1B29FF1B29FF1B49
:0A0F38002FFF1B2FFF1B2FFF1B2FA5
:011B2F002293
:031B29007F002218
:10170900438E805389F07BE07A287901780090191B
:10171900F11209A9121796EFF404F58A7BE07A28E9
:10172900790178009019F11209A9121796C3E49F5B
:10173900FFE49EFE74019DFDE49CFC780812099566
:071749008F8CD28CD2A92283
:03000B000216B723
:0416B700C0E0C0D0FF
:1016BB00D5080A75084C300D020514D20DA2037221
:1016CB00045036150AE50A7030850C0AD207300A29
:1016DB0017E50D6007150D438F01801D538FFEC25B
:1016EB00B5D51615C20A8011050BE50BD394064030
:0916FB0008C203E5136002D206E7
:05170400D0D0D0E0325E
:10166400300E47C20E9019F11209A978101209958B
:101674008E1C8F1D900003E0FEA3E0FFE4FCFD7BC5
:1016840019FAF9F8120865C006C007AE1CAF1DAB05
:1016940007AA06E4F9F8D007D006121796780312C1
:1016A4000995900065EEF0A3EFF0900065E0FEA3CD
:0216B400E0FF55
:0116B6002211
:091AF400900067E0FEA3E0FF2270
:091AFD00900067EEF0A3EFF02267
:101A810090006BEEF0A3EFF0900069ECF0A3EDF0A5
:011A91002232
:031B2C00C2B4221E
:03003B000212AFFF
:1012AF00C0E0C083C082C0D075D000C004C005C0EC
:0312BF0006C0075F
:1012C20030DF04C2DF807D30DA04C2DA807630D9C2
:1012D2003DC2D9AFFBEFFEADEB7C00E42DFFEC3E4F
:1012E20020000E900001F0A3EFF075DB11D2008018
:1012F20053FE900001E0FCA3E0FDC3EF9DFFEE9CD6
:10130200A3F0A3EFF075DB00C200D20E803630D816
:1013120033C2D8900067E07002A3E06022B2B490BA
:101322000069E0FEA3E0F5EAEEF5FAA3E0FEA3E031
:10133200FF90006AE02FF0900069E03EF08005C265
:04134200B453DAFEC8
:10134600D007D006D005D004D0D0D082D083D0E04C
:011356003264
:061B2000121709D2AF22EA
:101476003004047F0180027F00200A047E0180027E
:101486007E00EE5F6074E515C3950950683002363C
:10149600750D01E515131313541FAB17AA18A919D7
:1014A600F582758300120800FFE515540704FEEF68
:1014B600A806088002C333D8FC30D705751603800A
:1014C6002F751601802AAB17AA18A91975F002E51F
:1014D60015A4F58285F083120800F50DE51575F063
:1014E60002A429F9EA35F0FA900001120800F5166F
:0A14F6000515D20A22C204438F102C
:0115000022C8
:100F7300900000E014F0701F740AF0D2059000296D
:100F8300E014F07012740AF0D20890006DE014F0CF
:100F93007005740AF0D20190002AA3E0FAA3E0F9E5
:100FA3001209D190002DA3E0FAA3E0F91209D19020
:100FB3000039A3E0FAA3E0F91209D1900045A3E0B8
:100FC300FAA3E0F91209D1900054A3E0FAA3E0F9DF
:100FD3001209D190005DA3E0FAA3E0F91209D190C0
:100FE300004BA3E0FAA3E0F91209D1EF600C9000E3
:100FF3001DA3E0FAA3E0F91209D190004EA3E0FA91
:10100300A3E0F91209D1EF600E900020A3E0FAA348
:10101300E0F91209D1D20BE512D394004016D51290
:101023003030090C900023A3E0FAA3E0F91209D1B0
:10103300D20C801D900051A3E0FAA3E0F91209D16C
:10104300EF600E900023A3E0FAA3E0F91209D1D2D6
:0D1053000C900005A3E0FAA3E0F90209D11A
:1013570090003FA3E0FAA3E0F91209D1900042A35D
:10136700E0FAA3E0F91209D1900033A3E0FAA3E071
:10137700F91209D1900008A3E0FAA3E0F91209D104
:10138700900030A3E0FAA3E0F91209D1EF600C90C6
:101397000011A3E0FAA3E0F91209D1900036A3E007
:1013A700FAA3E0F91209D1EF600C900017A3E0FA55
:1013B700A3E0F91209D1900048A3E0FAA3E0F912DB
:1013C70009D1EF600C90001AA3E0FAA3E0F9120923
:1013D700D130060EC206900026A3E0FAA3E0F91268
:0313E70009D12207
:1017DA0090000BA3E0FAA3E0F91209D190003CA310
:1017EA00E0FAA3E0F91209D1EF600C900014A3E02B
:1017FA00FAA3E0F91209D1900057A3E0FAA3E0F99D
:0F180A001209D190005AA3E0FAA3E0F90209D124
:10197B00AF11AE10AD0FAC0E9000601209B9900014
:10198B0064E514F0E4F511F510F50FF50EF5149070
:0B199B00000EA3E0FAA3E0F90209D15E
:10181900300705C207121476300D05C20D120F7379
:10182900300505C205121357300805C2081217DA28
:10183900300105C20112197BE5112401F511E435C6
:0E18490010F510E4350FF50FE4350EF50E2204
:101501008B3B8A3C893DEFB40C005070901514F868
:1015110028287302153802153D02154202154702AB
:10152100154C02155102155602155B021560021584
:101531006502156A02156F900005803590000880DC
:101541003090000B802B90000E802690001180219E
:10155100900017801C900014801790001A80129040
:10156100001D800D900020800890002380039000D2
:0D15710026E53BF0A3E53CF0A3E53DF022AC
:071B0D007B017A00796022E0
:100F420055008C00000000000000000000000000BE
:080F5200000001000000000096
:030043000209D7D8
:1009D700C0E0C0F0C083C082C0D075D000C000C0E6
:1009E70001C002C003C004C005C006C007E59A30B5
:1009F700E142539AFD900091E0FEA3E0FFC390000F
:100A070090E09F90008FE09E501F90008CE0FBA32A
:100A1700E0FAA3E0F9A3E475F00112084F85F0822C
:100A2700F583120800F59B800B900093E4F0E51F17
:100A37006002C2B7E59A20E003020B8E539AFE309C
:100A47000C0BC20C900099E4F0A3F0D209E51F64E7
:100A5700026003020AE8900097E0FEA3E0FFA3E02C
:100A6700FCA3E0FDC39FEC9E5071900094E0FBA3B4
:100A7700E0FAA3E0F98D828C83E59B12082D9000A4
:100A87009FE0FEA3E0FFC3ED9FEC9E5040900097D0
:100A9700E0FCA3E0FDEF9DEE9C503290009CE0FB54
:100AA700A3E0FAA3E0F9900099E0FEA3E0FFF58246
:100AB7008E83120800FD900094E0FBA3E0FAA3E008
:100AC700F98F828E831208006D6002C20990009A26
:100AD700E004F07006900099E004F0851E12020B06
:100AE7008E900097E0FEA3E0FFA3E0FCA3E0FDC328
:100AF7009FEC9E5077900094E0FBA3E0FAA3E0F907
:100B07008D828C83E59B12082D90009FE0FEA3E069
:100B1700FFC3ED9FEC9E5046900097E0FCA3E0FDDD
:100B2700EF9DEE9C503890009CE0FBA3E0FAA3E019
:100B3700F9900099E0FEA3E0FFF5828E831208008A
:100B4700FD900094E0FBA3E0FAA3E0F98F828E8387
:100B57001208006D600890009974FFF0A3F09000F0
:100B67009AE004F07006900099E004F0900097E096
:100B7700FEA3E0FFC390009AE09F900099E09E409B
:100B87000690009B7401F0D007D006D005D004D0A2
:100B970003D002D001D000D0D0D082D083D0F0D003
:020BA700E0323A
:021A92001545F8
:0A1A940090009BE0A845F6FFE4F087
:031A9E00054522D9
:011B30002292
:101149008F3E8E3D8D3C8C3B853F1FE51F70028095
:101159000343BA01E51F701790005D74FFF0A37493
:101169001BF0A37430F0E4F5DBD290D2918020C259
:10117900B7AB3EAA3DA93CA83BE47F407E9CFDFC61
:101189001208F08F1EE51E7003751E01851E12756B
:101199009A10E47B04FAF9F89019F11209A91208D6
:1011A900F0AB3EAA3DA93CA83B1208F0EFF404F5C8
:1011B900D7E47B04FAF9F89019F11209A91208F099
:1011C900AB3EAA3DA93CA83B1208F0C3E49FFFE44B
:1011D9009EFE74019DFDE49CFC78081209828FD65D
:1011E900438E1443AF0190005174FFF0A3741AF0B9
:0511F900A37492F02236
:1018BA00900094EBF0A3EAF0A3E9F0A3ECF0A3ED17
:1018CA00F090009FE543F0A3E544F090009CE540CA
:1018DA00F0A3E541F0A3E542F0D20CE490009BF0BE
:0118EA0022DB
:10194C00900093E0702690008CEBF0A3EAF0A3E9F2
:10195C00F0E4A3F0A3F0A3ECF0A3EDF0A37401F07A
:0F196C00E51F6002D2B7439A027F02227F032257
:0B1ACC00900093E07002FF227F0122D7
:100F5A005500A10000000000000000000000000091
:080F6A0000000100000000007E
:03002300020D5576
:100D5500C0E0C0F0C083C082C0D075D000C000C064
:100D650001C002C003C004C005C006C00730993BDE
:100D7500C2999000A6E0FEA3E0FFC39000A5E09F06
:100D85009000A4E09E501F9000A1E0FBA3E0FAA311
:100D9500E0F9A3E475F00112084F85F082F583129E
:100DA5000800F59980059000A8E4F0209803020E4C
:100DB5006AC298300B09C20B9000AEE4F0A3F09024
:100DC50000ACE0FEA3E0FFA3E0FCA3E0FDC39FECC5
:100DD5009E50779000A9E0FBA3E0FAA3E0F98D828D
:100DE5008C83E59912082D9000B4E0FEA3E0FFC3C3
:100DF500ED9FEC9E50469000ACE0FCA3E0FDEF9D1E
:100E0500EE9C50389000B1E0FBA3E0FAA3E0F99026
:100E150000AEE0FEA3E0FFF5828E83120800FD9090
:100E250000A9E0FBA3E0FAA3E0F98F828E83120804
:100E3500006D60089000AE74FFF0A3F09000AFE085
:100E450004F070069000AEE004F09000ACE0FEA364
:100E5500E0FFC39000AFE09F9000AEE09E4006909B
:100E650000B07401F0D007D006D005D004D003D06F
:100E750002D001D000D0D0D082D083D0F0D0E032E3
:021AA1001545E9
:0A1AA3009000B0E0A845F6FFE4F063
:031AAD00054522CA
:10157E008F3E8E3D8D3C8C3B759850438E40538EE6
:10158E00FE53890FE47B04FAF9F89019F11209A9B8
:10159E001208F0AB3EAA3DA93CA83B1208F0EFF4AE
:1015AE0004F58BE47B04FAF9F89019F11209A912EB
:1015BE0008F0AB3EAA3DA93CA83B1208F0C3E49F3D
:1015CE00FFE49EFE74019DFDE49CFC7808120982E6
:1015DE008F8DC2ABD28ED2AC90004E74FFF0A3743E
:0715EE001AF0A374A1F02222
:1018EB009000A9EBF0A3EAF0A3E9F0A3ECF0A3EDD1
:1018FB00F09000B4E543F0A3E544F09000B1E5406F
:10190B00F0A3E541F0A3E542F0D20BE49000B0F078
:01191B0022A9
:1019A6009000A8E0701F9000A1EBF0A3EAF0A3E975
:1019B600F0E4A3F0A3F0A3ECF0A3EDF0A37401F020
:0819C600D2997F02227F032267
:0B1AD7009000A8E07002FF227F0122B7
:030000000213EAFE
:0C13EA00787FE4F6D8FD758145021431CF
:10080000BB010CE58229F582E5833AF583E02250AD
:1008100006E92582F8E622BBFE06E92582F8E222F7
:0D082000E58229F582E5833AF583E4932211
:10082D00F8BB010DE58229F582E5833AF583E8F001
:10083D00225006E92582C8F622BBFE05E92582C8AD
:02084D00F22295
:10084F00A3F8E0C5F025F0F0E5821582700215835C
:06085F00E0C838F0E822B9
:10086500E88FF0A4CC8BF0A42CFCE98EF0A42CFC32
:100875008AF0EDA42CFCEA8EF0A4CDA8F08BF0A4B0
:100885002DCC3825F0FDE98FF0A42CCD35F0FCEB0F
:100895008EF0A4FEA9F0EB8FF0A4CFC5F02ECD39D4
:0F08A500FEE43CFCEAA42DCE35F0FDE43CFC2241
:1008B40075F008758200EF2FFFEE33FECD33CDCCFB
:1008C40033CCC58233C5829BED9AEC99E58298407E
:1008D4000CF582EE9BFEED9AFDEC99FC0FD5F0D65B
:1008E400E4CEFBE4CDFAE4CCF9A88222B800C1B985
:1008F4000059BA002DEC8BF084CFCECDFCE5F0CBC3
:10090400F97818EF2FFFEE33FEED33FDEC33FCEBFB
:1009140033FB10D703994004EB99FB0FD8E5E4F9B6
:10092400FA227818EF2FFFEE33FEED33FDEC33FCA3
:10093400C933C910D7059BE99A4007EC9BFCE99A97
:10094400F90FD8E0E4C9FAE4CCFB2275F010EF2FDC
:10095400FFEE33FEED33FDCC33CCC833C810D707DC
:100964009BEC9AE899400AED9BFDEC9AFCE899F817
:0E0974000FD5F0DAE4CDFBE4CCFAE4C8F922AA
:10179600C2D5E830E70FB2D5E4C39BFBE49AFAE47E
:1017A60099F9E498F8EC30E717B2D51217CC12087D
:1017B600F0E4C39BFBE49AFAE499F9E498F8800311
:1017C6001208F030D50DE4C39FFFE49EFEE49DFDB4
:0417D600E49CFC2271
:10098200E8600FECC313FCED13FDEE13FEEF13FF53
:03099200D8F12277
:10099500E86010ECA2E713FCED13FDEE13FEEF1378
:0409A500FFD8F02265
:1009A900E493FC740193FD740293FE740393FF2294
:0C09B900ECF0A3EDF0A3EEF0A3EFF022B1
:0C09C500A42582F582E5F03583F583223D
:0609D1008A838982E473B1
:1013F6000211FEE493A3F8E493A34003F68001F2FE
:1014060008DFF48029E493A3F85407240CC8C333F7
:10141600C4540F4420C8834004F456800146F6DFC6
:10142600E4800B0102040810204080900E85E47EC3
:10143600019360BCA3FF543F30E509541FFEE493BB
:10144600A360010ECF54C025E060A840B8E493A382
:10145600FAE493A3F8E493A3C8C582C8CAC583CAAD
:10146600F0A3C8C582C8CAC583CADFE9DEE780BE65
:010F7200007E
:00000001FF
