:1018CF0000A8C0003F065B4F666D7D077F6F000865
:1018DF0040014148BF86DBCFE6EDFD87FFEF0003F8
:0218EF000F3FA9
:03104E000128AACC
:10194900EFD3940340027F03EF9018ED93FF021940
:01195900E7A6
:10151B007F041216CCBF01054329018006BF0203CD
:10152B005329FE7F011216CCBF0105432902800609
:10153B00BF02035329FD7F051216CCBF01054329BA
:10154B00048006BF02035329FB7F021216CCBF0196
:10155B00054329088006BF02035329F7E4FF12173E
:10156B0056BF0103752C017F01121756BF0103757E
:0D157B002A017F02121756BF0103752B01D4
:011588002240
:10158900E52264AA705085232DE52DB4D205AF2438
:10159900021949E52D64E2703D1219A4EF703775FF
:1015A90025AA752602852927E52C6003432710E51E
:1015B9002A6003432720E52B60034327407B007AF9
:1015C9000079257D037C00121875EF64036007E438
:0615D900F52CF52AF52BAC
:0115DF0022E9
:1014A40012192E7D07E4FF1219B8E4FF1219E7752B
:1014B400300A75310A75320A75330A75340A7B0AA3
:1014C4007D0A7F021218F11219117F9812181375F0
:1014D40031017F807E257D007C0012112075320051
:1014E4007533007534287535007536017B007A0034
:1014F40079227D037C001218447BFF7A15791B7FC7
:10150400021214277BFF7A1579897F0A1214271295
:0715140019ED1217D580FB51
:0919AF008B88898C88898F888956
:1010510052007A868600868600868600868600860D
:09106100860086860041006F093B
:03002B000219E1D6
:0619E10053BCEFD20F32EF
:020BA9001538FD
:100BAB00200F03020D52C20F90006EE0B4090040FB
:100BBB0003020D34900BC6F8282873020C0D020BA0
:100BCB00E1020BF3020C1F020BE1020BF3020C36DA
:100BDB00020BE1020BF3AFBDEFFEADBE7C00E42DCB
:100BEB00FFEC3E900070803CAFBDEFFEADBE7C00D5
:100BFB00E42DFFEC3E900072F0A3EFF0751A0102AA
:100C0B000D3AAFBDEFFEADBE7C00E42DFFEC3E9088
:100C1B0000748010AFBDEFFEADBE7C00E42DFFEC89
:100C2B003E900076F0A3EFF0020D3AAFBDEFFEADB4
:100C3B00BE7C00E42DFFEC3E900078F0A3EFF0902B
:100C4B000078E0FEA3E07807CEC313CE13D8F9A843
:100C5B0038F6C394065013A838E675F003A4247A2B
:100C6B00F582E43400F583E014F090006FE014F0AB
:100C7B006003020D3A7409F0A838E4F6A838E6FFD1
:100C8B00C394064003020D3AEF75F003A4247AF5E2
:100C9B0082E43400F583E0C39480502AE6FF75F0BC
:100CAB0003A4247BF582E43400F583E0D3948040E5
:100CBB0040EF75F003A4247CF582E43400F58374D3
:100CCB0001F0F51B802BA838E6FF75F003A4247BFD
:100CDB00F582E43400F583E0C394805014EF75F093
:100CEB0003A4247CF582E43400F5837402F0751BB5
:100CFB0001A838E6FF75F003A4247AF582E43400EA
:100D0B00F583E0FEEF75F003A4247BF582E4340059
:100D1B00F583EEF0E675F003A4247AF582E4340053
:100D2B00F5837486F006020C8790006E74FFF090CA
:100D3B00006EE0D39407400374FFF090006EE00464
:070D4B00F09019AF93F5BC15
:030D52000538223F
:02197A0015381E
:09197C00A838A61BE4F51BE6FFE8
:0319850005382200
:02198800153810
:09198A00A838A61AE4F51AE6FFDC
:03199300053822F2
:101813008F9D75BC88439720D2AD90004574FFF02F
:10182300A3740BF0A374A9F0A374FFF0A37419F0CD
:10183300A3747AF0A374FFF0A37419F0A37488F06F
:011843002282
:0719D3007B017A007970220C
:1016CC00C3EF64809480403BD3EF648094855033A7
:1016DC00EFFD3395E0FC90007C75F003ED1209C52D
:1016EC00EC75F003A42583F583E0FE90007C75F087
:1016FC0003ED1209C5EC75F003A42583F583E4F022
:05170C00AF06227F037F
:0117110022B5
:100F6500E4F5809000ACE0FFB40800505F900F7985
:100F7500F8282873020F91020F97020F9D020FA305
:100F8500020FA9020FB3020FBD020FC7C2A3C2A26F
:100F95008016C2A3C2A2801AC2A3C2A2801EC2A387
:100FA500C2A28022C2A3D2A2C2A1C2A08020C2A393
:100FB500D2A2C2A1D2A08016C2A3D2A2D2A1C2A09F
:100FC500800CC2A3D2A2D2A1D2A08002D2A3C3EF29
:100FD5006480948850299000ACE0FF3395E0FE745E
:100FE500A32FF58274003EF583E0FF3395E0FE7490
:100FF500D32FF58274183EF583E493F580801E9017
:1010050000ACE0FFB408133395E0FE74A32FF5821E
:1010150074003EF583E0F5808003E4F5809000A23E
:10102500E0FF9000ACE004FEF0D3EF6480F8EE64DE
:1010350080984014E0D36480948850047408F022AA
:091045009000A1E09000ACF02243
:10192E00E4F5937594FF5395F043960F90002A7447
:0B193E00FFF0A3740FF0A37465F0220B
:0919B8009000A1EFF0A3EDF02274
:1018F1009000A3EFF0A3EDF0A3EBF0A3E530F0A38C
:10190100E531F0A3E532F0A3E533F0A3E534F022AD
:0619E7009000ABEFF022BE
:10106A000137004900AE949400949400949400418E
:03107A0000AD1EA8
:020D550015384F
:100D570020B2069000AEE014F020B3069000B1E098
:100D670014F02097069000B4E014F09000ADE01462
:100D7700F06003020E75741EF0A838E4F6A838E692
:100D8700FFC3648094834003020E75EF3395E0FE42
:100D97009000AE75F003EF1209C5EE75F003A425B8
:100DA70083F583E0C3948050399000AF75F003EF6B
:100DB7001209C5EE75F003A42583F583E0D394806B
:100DC700405AE6FF3395E0FE9000B075F003EF124E
:100DD70009C5EE75F003A42583F5837401F0F53793
:100DE700803AA838E6FF3395E0FE9000AF75F00330
:100DF700EF1209C5EE75F003A42583F583E0C394CC
:100E07008050199000B075F003EF1209C5EE75F028
:100E170003A42583F5837402F0753701A838E6FF2C
:100E2700FD3395E0FC9000AE75F003ED1209C5ECBB
:100E370075F003A42583F583E0FE9000AF75F003FA
:100E4700ED1209C5EC75F003A42583F583EEF0EFE9
:100E57003395E0FE9000AE75F003EF1209C5EE750D
:0E0E6700F003A42583F5837494F006020D8435
:030E75000538221B
:02199600153802
:09199800A838A637E4F537E6FF94
:0319A100053822E4
:1019110090003074FFF0A37419F0A37496F0900056
:0D1921002D74FFF0A3740DF0A37455F02297
:10175600EF600764016003BF0233EFFD3395E0FCE1
:101766009000B075F003ED1209C5EC75F003A425E1
:1017760083F583E0FE9000B075F003ED1209C5EC29
:0F17860075F003A42583F583E4F0AF06227F03FB
:011795002231
:10107D004100000A4100290A41006D0A040E0000DA
:10108D0000000114004600670000FFFF8FFFC10D37
:10109D00C105C108C101C10E60240005FF19F9FF8A
:1010AD0019F9FF19F9FF19F9FF19F9FF19F9FF19C5
:1010BD00F9FF19F9FF19F9FF19F9FF19F9FF19F9D5
:1010CD006036002AFF19F9FF19F9FF19F3FF19F915
:1010DD00FF19F3FF19F9FF19F3FF19F9FF19F9FFBB
:1010ED0019F9FF19F3FF19F3FF19F3FF19F3FF199D
:0A10FD00F9FF19F9FF19F9FF19F9BD
:0119F90022CB
:0319F3007F002250
:10168500438E805389F07BE07A28790178009018A1
:10169500CF1209A9121712EFF404F58A7BE07A2814
:1016A500790178009018CF1209A9121712C3E49F87
:1016B500FFE49EFE74019DFDE49CFC7808120995EB
:0716C5008F8CD28CD2A92208
:03000B00021633A7
:04163300C0E0C0D083
:10163700D5080A75084C300D020514D20DA20372A5
:10164700045036150AE50A7030850C0AD207300AAD
:1016570017E50D6007150D438F01801D538FFEC2DF
:10166700B5D51615C20A8011050BE50BD3940640B4
:0916770008C203E5136002D2066B
:05168000D0D0D0E032E3
:1015E000300E47C20E9018CF1209A9781012099533
:1015F0008E1C8F1D900003E0FEA3E0FFE4FCFD7B4A
:1016000019FAF9F8120865C006C007AE1CAF1DAB89
:1016100007AA06E4F9F8D007D006121712780312C9
:101620000995900065EEF0A3EFF0900065E0FEA351
:02163000E0FFD9
:011632002295
:0919C100900067E0FEA3E0FF22A4
:0919CA00900067EEF0A3EFF0229B
:10195A0090006BEEF0A3EFF0900069ECF0A3EDF0CD
:01196A00225A
:0319F600C2B42256
:03003B000211D5DA
:1011D500C0E0C083C082C0D075D000C004C005C0C7
:0311E50006C0073A
:1011E80030DF04C2DF807D30DA04C2DA807630D99D
:1011F8003DC2D9AFFBEFFEADEB7C00E42DFFEC3E2A
:1012080020000E900001F0A3EFF075DB11D20080F2
:1012180053FE900001E0FCA3E0FDC3EF9DFFEE9CB0
:10122800A3F0A3EFF075DB00C200D20E803630D8F1
:1012380033C2D8900067E07002A3E06022B2B49095
:101248000069E0FEA3E0F5EAEEF5FAA3E0FEA3E00C
:10125800FF90006AE02FF0900069E03EF08005C240
:04126800B453DAFEA3
:10126C00D007D006D005D004D0D0D082D083D0E027
:01127C00323F
:0619ED00121685D2AF22A4
:10139C003004047F0180027F00200A047E01800259
:1013AC007E00EE5F6074E515C39509506830023617
:1013BC00750D01E515131313541FAB17AA18A919B2
:1013CC00F582758300120800FFE515540704FEEF43
:1013DC00A806088002C333D8FC30D70575160380E5
:1013EC002F751601802AAB17AA18A91975F002E5FA
:1013FC0015A4F58285F083120800F50DE51575F03E
:10140C0002A429F9EA35F0FA900001120800F51649
:0A141C000515D20A22C204438F1006
:0114260022A3
:100E7800900000E014F0701F740AF0D20590002969
:100E8800E014F07012740AF0D20890006DE014F0CB
:100E98007005740AF0D20190002AA3E0FAA3E0F9E1
:100EA8001209D190002DA3E0FAA3E0F91209D1901C
:100EB8000039A3E0FAA3E0F91209D1900045A3E0B4
:100EC800FAA3E0F91209D1900054A3E0FAA3E0F9DB
:100ED8001209D190005DA3E0FAA3E0F91209D190BC
:100EE800004BA3E0FAA3E0F91209D1EF600C9000DF
:100EF8001DA3E0FAA3E0F91209D190004EA3E0FA8D
:100F0800A3E0F91209D1EF600E900020A3E0FAA344
:100F1800E0F91209D1D20BE512D394004016D5128C
:100F28003030090C900023A3E0FAA3E0F91209D1AC
:100F3800D20C801D900051A3E0FAA3E0F91209D168
:100F4800EF600E900023A3E0FAA3E0F91209D1D2D2
:0D0F58000C900005A3E0FAA3E0F90209D116
:10127D0090003FA3E0FAA3E0F91209D1900042A338
:10128D00E0FAA3E0F91209D1900033A3E0FAA3E04C
:10129D00F91209D1900008A3E0FAA3E0F91209D1DF
:1012AD00900030A3E0FAA3E0F91209D1EF600C90A1
:1012BD000011A3E0FAA3E0F91209D1900036A3E0E2
:1012CD00FAA3E0F91209D1EF600C900017A3E0FA30
:1012DD00A3E0F91209D1900048A3E0FAA3E0F912B6
:1012ED0009D1EF600C90001AA3E0FAA3E0F91209FE
:1012FD00D130060EC206900026A3E0FAA3E0F91243
:03130D0009D122E1
:1017960090000BA3E0FAA3E0F91209D190003CA354
:1017A600E0FAA3E0F91209D1EF600C900014A3E06F
:1017B600FAA3E0F91209D1900057A3E0FAA3E0F9E1
:0F17C6001209D190005AA3E0FAA3E0F90209D169
:1018A400AF11AE10AD0FAC0E9000601209B99000EC
:1018B40064E514F0E4F511F510F50FF50EF5149048
:0B18C400000EA3E0FAA3E0F90209D136
:1017D500300705C20712139C300D05C20D120E7895
:1017E500300505C20512127D300805C2081217968C
:1017F500300105C2011218A4E5112401F511E435E3
:0E18050010F510E4350FF50FE4350EF50E2248
:101427008B2D8A2E892FEFB40C00507090143AF848
:1014370028287302145E02146302146802146D02F2
:10144700147202147702147C0214810214860214A7
:101457008B02149002149590000580359000088047
:101467003090000B802B90000E8026900011802179
:10147700900017801C900014801790001A8012901B
:10148700001D800D900020800890002380039000AD
:0D14970026E52DF0A3E52EF0A3E52FF022B1
:0719DA007B017A0079602215
:1011070055008C00000000000000000000000000F7
:081117000000010000000000CF
:030043000209D7D8
:1009D700C0E0C0F0C083C082C0D075D000C000C0E6
:1009E70001C002C003C004C005C006C007E59A30B5
:1009F700E142539AFD900091E0FEA3E0FFC390000F
:100A070090E09F90008FE09E501F90008CE0FBA32A
:100A1700E0FAA3E0F9A3E475F00112084F85F0822C
:100A2700F583120800F59B800B900093E4F0E51F17
:100A37006002C2B7E59A20E003020B8E539AFE309C
:100A47000C0BC20C900099E4F0A3F0D209E51F64E7
:100A5700026003020AE8900097E0FEA3E0FFA3E02C
:100A6700FCA3E0FDC39FEC9E5071900094E0FBA3B4
:100A7700E0FAA3E0F98D828C83E59B12082D9000A4
:100A87009FE0FEA3E0FFC3ED9FEC9E5040900097D0
:100A9700E0FCA3E0FDEF9DEE9C503290009CE0FB54
:100AA700A3E0FAA3E0F9900099E0FEA3E0FFF58246
:100AB7008E83120800FD900094E0FBA3E0FAA3E008
:100AC700F98F828E831208006D6002C20990009A26
:100AD700E004F07006900099E004F0851E12020B06
:100AE7008E900097E0FEA3E0FFA3E0FCA3E0FDC328
:100AF7009FEC9E5077900094E0FBA3E0FAA3E0F907
:100B07008D828C83E59B12082D90009FE0FEA3E069
:100B1700FFC3ED9FEC9E5046900097E0FCA3E0FDDD
:100B2700EF9DEE9C503890009CE0FBA3E0FAA3E019
:100B3700F9900099E0FEA3E0FFF5828E831208008A
:100B4700FD900094E0FBA3E0FAA3E0F98F828E8387
:100B57001208006D600890009974FFF0A3F09000F0
:100B67009AE004F07006900099E004F0900097E096
:100B7700FEA3E0FFC390009AE09F900099E09E409B
:100B87000690009B7401F0D007D006D005D004D0A2
:100B970003D002D001D000D0D0D082D083D0F0D003
:020BA700E0323A
:02196B0015382D
:0A196D0090009BE0A838F6FFE4F0BC
:031977000538220E
:0119FA0022CA
:101120008F308E2F8D2E8C2D85311FE51F70028004
:101130000343BA01E51F701790005D74FFF0A374BC
:1011400019F0A374FAF0E4F5DBD290D2918020C2BA
:10115000B7AB30AA2FA92EA82DE47F407E9CFDFCC2
:101160001208F08F1EE51E7003751E01851E127594
:101170009A10E47B04FAF9F89018CF1209A9120822
:10118000F0AB30AA2FA92EA82D1208F0EFF404F529
:10119000D7E47B04FAF9F89018CF1209A91208F0E5
:1011A000AB30AA2FA92EA82D1208F0C3E49FFFE4AC
:1011B0009EFE74019DFDE49CFC78081209828FD686
:1011C000438E1443AF0190005174FFF0A37419F0E3
:0511D000A3746BF02286
:10184400900094EBF0A3EAF0A3E9F0A3ECF0A3ED8D
:10185400F090009FE535F0A3E536F090009CE5326A
:10186400F0A3E533F0A3E534F0D20CE490009BF050
:011874002251
:10187500900093E0702690008CEBF0A3EAF0A3E9CA
:10188500F0E4A3F0A3F0A3ECF0A3EDF0A37401F052
:0F189500E51F6002D2B7439A027F02227F03222F
:0B19A400900093E07002FF227F012200
:03000000021310D8
:0C131000787FE4F6D8FD75813802135791
:10080000BB010CE58229F582E5833AF583E02250AD
:1008100006E92582F8E622BBFE06E92582F8E222F7
:0D082000E58229F582E5833AF583E4932211
:10082D00F8BB010DE58229F582E5833AF583E8F001
:10083D00225006E92582C8F622BBFE05E92582C8AD
:02084D00F22295
:10084F00A3F8E0C5F025F0F0E5821582700215835C
:06085F00E0C838F0E822B9
:10086500E88FF0A4CC8BF0A42CFCE98EF0A42CFC32
:100875008AF0EDA42CFCEA8EF0A4CDA8F08BF0A4B0
:100885002DCC3825F0FDE98FF0A42CCD35F0FCEB0F
:100895008EF0A4FEA9F0EB8FF0A4CFC5F02ECD39D4
:0F08A500FEE43CFCEAA42DCE35F0FDE43CFC2241
:1008B40075F008758200EF2FFFEE33FECD33CDCCFB
:1008C40033CCC58233C5829BED9AEC99E58298407E
:1008D4000CF582EE9BFEED9AFDEC99FC0FD5F0D65B
:1008E400E4CEFBE4CDFAE4CCF9A88222B800C1B985
:1008F4000059BA002DEC8BF084CFCECDFCE5F0CBC3
:10090400F97818EF2FFFEE33FEED33FDEC33FCEBFB
:1009140033FB10D703994004EB99FB0FD8E5E4F9B6
:10092400FA227818EF2FFFEE33FEED33FDEC33FCA3
:10093400C933C910D7059BE99A4007EC9BFCE99A97
:10094400F90FD8E0E4C9FAE4CCFB2275F010EF2FDC
:10095400FFEE33FEED33FDCC33CCC833C810D707DC
:100964009BEC9AE899400AED9BFDEC9AFCE899F817
:0E0974000FD5F0DAE4CDFBE4CCFAE4C8F922AA
:10171200C2D5E830E70FB2D5E4C39BFBE49AFAE402
:1017220099F9E498F8EC30E717B2D5121748120885
:10173200F0E4C39BFBE49AFAE499F9E498F8800395
:101742001208F030D50DE4C39FFFE49EFEE49DFD38
:04175200E49CFC22F5
:10098200E8600FECC313FCED13FDEE13FEEF13FF53
:03099200D8F12277
:10099500E86010ECA2E713FCED13FDEE13FEEF1378
:0409A500FFD8F02265
:1009A900E493FC740193FD740293FE740393FF2294
:0C09B900ECF0A3EDF0A3EEF0A3EFF022B1
:0C09C500A42582F582E5F03583F583223D
:0609D1008A838982E473B1
:10131C000214A4E493A3F8E493A34003F68001F22F
:10132C0008DFF48029E493A3F85407240CC8C333D2
:10133C00C4540F4420C8834004F456800146F6DFA1
:10134C00E4800B010204081020408090104EE47ED3
:10135C00019360BCA3FF543F30E509541FFEE49396
:10136C00A360010ECF54C025E060A840B8E493A35D
:10137C00FAE493A3F8E493A3C8C582C8CAC583CA88
:10138C00F0A3C8C582C8CAC583CADFE9DEE780BE40
:01111F0000CF
:00000001FF
