:1017AD0000A8C0003F065B4F666D7D077F6F000888
:1017BD0040014148BF86DBCFE6EDFD87FFEF777C2B
:0319730002197FD7
:100E53007F041214C0BF0105432D018006BF0203A6
:100E6300532DFE7F011214C0BF0105432D028006DE
:100E7300BF0203532DFD7F051214C0BF0105432D8F
:100E8300048006BF0203532DFB7F021214C0BF016F
:100E930005432D088006BF0203532DF7E4FF121507
:100EA3004ABF0108753001E4FF1216E77F011215EE
:100EB3004ABF0103752E017F0212154ABF01037554
:100EC3002F01E52D600B12191BEF70057F01121620
:100ED300E7752AAA752B02852D2CE5306003432C78
:100EE30010E52E6003432C20E52F6003432C407B49
:100EF300007A00792A7D031215C9EF64036007E4C1
:060F0300F530F52EF52F7C
:010F090022C5
:10137F001218807D07E4FF12192F7F8012196775ED
:10138F00250A75260A75270A75280A75290A7B0A00
:10139F007D0A7F1A1217CD12180D7F981216857FAE
:1013AF002B1218C51218D57BFF7A1979737F01128A
:1013BF0012137BFF7A0E79537F0212121312196DDB
:0513CF0012164780FB2F
:091926008B88898C88898F8889DF
:100F0A0052007A8686008686008686008686008655
:090F1A00860086860041006F0983
:03002B0002196156
:0619610053BCEFD20F326F
:0209AE00153BF7
:1009B000200F03020B57C20F90006EE0B4090040F5
:1009C00003020B399009CBF8282873020A12020996
:1009D000E60209F8020A240209E60209F8020A3BC3
:1009E0000209E60209F8AFBDEFFEADBE7C00E42DC2
:1009F000FFEC3E900070803CAFBDEFFEADBE7C00D2
:100A0000E42DFFEC3E900072F0A3EFF0753601028A
:100A10000B3FAFBDEFFEADBE7C00E42DFFEC3E9082
:100A200000748010AFBDEFFEADBE7C00E42DFFEC86
:100A30003E900076F0A3EFF0020B3FAFBDEFFEADAE
:100A4000BE7C00E42DFFEC3E900078F0A3EFF09028
:100A50000078E0FEA3E07807CEC313CE13D8F9A840
:100A60003BF6C394065013A83BE675F003A4247A22
:100A7000F582E43400F583E014F090006FE014F0A8
:100A80006003020B3F7409F0A83BE4F6A83BE6FFC5
:100A9000C394064003020B3FEF75F003A4247AF5DC
:100AA00082E43400F583E0C39480502AE6FF75F0B9
:100AB00003A4247BF582E43400F583E0D3948040E2
:100AC00040EF75F003A4247CF582E43400F58374D0
:100AD00001F0F537802BA83BE6FF75F003A4247BDB
:100AE000F582E43400F583E0C394805014EF75F090
:100AF00003A4247CF582E43400F5837402F0753796
:100B000001A83BE6FF75F003A4247AF582E43400E3
:100B1000F583E0FEEF75F003A4247BF582E4340056
:100B2000F583EEF0E675F003A4247AF582E4340050
:100B3000F5837486F006020A8C90006E74FFF090C4
:100B4000006EE0D39407400374FFF090006EE00461
:070B5000F090192693F5BC9B
:030B5700053B2239
:0218E500153BB1
:0918E700A83BA637E4F537E6FF43
:0318F000053B2293
:0218F300153BA3
:0918F500A83BA636E4F536E6FF37
:0318FE00053B2285
:101685008F9D75BC88439720D2AD90004574FFF0BF
:10169500A37409F0A374AEF0A374FFF0A37418F05B
:1016A500A374E5F0A374FFF0A37418F0A374F3F02A
:0116B5002212
:071953007B017A007970228C
:1014C000C3EF64809480403BD3EF648094855033B5
:1014D000EFFD3395E0FC90007C75F003ED12099C64
:1014E000EC75F003A42583F583E0FE90007C75F095
:1014F00003ED12099CEC75F003A42583F583E4F059
:05150000AF06227F038D
:0115050022C3
:100D6A00E4F580900097E0FFB40800505F900D7E94
:100D7A00F8282873020D96020D9C020DA2020DA8F6
:100D8A00020DAE020DB8020DC2020DCCC2A3C2A260
:100D9A008016C2A3C2A2801AC2A3C2A2801EC2A384
:100DAA00C2A28022C2A3D2A2C2A1C2A08020C2A390
:100DBA00D2A2C2A1D2A08016C2A3D2A2D2A1C2A09C
:100DCA00800CC2A3D2A2D2A1D2A08002D2A3C3EF26
:100DDA00648094885029900097E0FF3395E0FE7470
:100DEA008E2FF58274003EF583E0FF3395E0FE74A2
:100DFA00B12FF58274173EF583E493F580801E9037
:100E0A000097E0FFB408133395E0FE748E2FF58245
:100E1A0074003EF583E0F5808003E4F58090008D50
:100E2A00E0FF900097E004FEF0D3EF6480F8EE64F0
:100E3A0080984014E0D36480948850047408F022A7
:090E4A0090008CE0900097F0226A
:10188000E4F5937594FF5395F043960F90002A74F6
:0B189000FFF0A3740DF0A3746AF022B7
:09192F0090008CEFF0A3EDF02212
:1017CD0090008EEFF0A3EDF0A3EBF0A3E525F0A3D1
:1017DD00E526F0A3E527F0A3E528F0A3E529F022FF
:06196700900096EFF02253
:100F2300013A0049009994940094940094940041E8
:030F330000981E05
:020B5A00153B49
:100B5C0020B206900099E014F020B30690009CE0BF
:100B6C0014F020970690009FE014F0900098E01489
:100B7C00F06003020C7A741EF0A83BE4F6A83BE686
:100B8C00FFC3648094834003020C7AEF3395E0FE3C
:100B9C0090009975F003EF12099CEE75F003A425F3
:100BAC0083F583E0C39480503990009A75F003EF7D
:100BBC0012099CEE75F003A42583F583E0D3948091
:100BCC00405AE6FF3395E0FE90009B75F003EF1260
:100BDC00099CEE75F003A42583F5837401F0F53AB6
:100BEC00803AA83BE6FF3395E0FE90009A75F0033F
:100BFC00EF12099CEE75F003A42583F583E0C394F2
:100C0C0080501990009B75F003EF12099CEE75F063
:100C1C0003A42583F5837402F0753A01A83BE6FF23
:100C2C00FD3395E0FC90009975F003ED12099CECF6
:100C3C0075F003A42583F583E0FE90009A75F0030C
:100C4C00ED12099CEC75F003A42583F583EEF0EF0F
:100C5C003395E0FE90009975F003EF12099CEE7548
:0E0C6C00F003A42583F5837494F006020B892F
:030C7A00053B2215
:02190100153B94
:09190300A83BA63AE4F53AE6FF20
:03190C00053B2276
:10180D0090003074FFF0A37419F0A37401F09000F0
:0D181D002D74FFF0A3740BF0A3745AF02299
:10154A00EF600764016003BF0233EFFD3395E0FCEF
:10155A0090009B75F003ED12099CEC75F003A4252D
:10156A0083F583E0FE90009B75F003ED12099CEC75
:0F157A0075F003A42583F583E4F0AF06227F0309
:01158900223F
:100F36004100000A4100290A41006D0A040E000022
:100F460000000114004600670000FFFF8FFFC10D7F
:100F5600C105C108C101C10E60240005FF1982FF49
:100F66001982FF1982FF1982FF1982FF1982FF1960
:100F760082FF1982FF1982FF1982FF1982FF1982E7
:100F86006036002AFF1982FF1982FF1976FF19823F
:100F9600FF1976FF1982FF1976FF1982FF1982FF62
:100FA6001982FF1976FF1976FF1976FF1976FF1950
:0A0FB60082FF1982FF1982FF1982E1
:011982002242
:031976007F0022CD
:10147900438E805389F07BE07A28790178009017B0
:10148900AD120980121506EFF404F58A7BE07A287B
:10149900790178009017AD120980121506C3E49FEF
:1014A900FFE49EFE74019DFDE49CFC780812096C22
:0714B9008F8CD28CD2A92216
:03000B00021427B5
:04142700C0E0C0D091
:10142B00D5080A75084C300D020514D20DA20372B3
:10143B00045036150AE50A7030850C0AD207300ABB
:10144B0017E50D6007150D438F01801D538FFEC2ED
:10145B00B5D51615C20A8011050BE50BD3940640C2
:09146B0008C203E5136002D20679
:05147400D0D0D0E032F1
:1013D400300E47C20E9017AD120980781012096CB6
:1013E4008E388F39900003E0FEA3E0FFE4FCFD7B20
:1013F40019FAF9F812084FC006C007AE38AF39AB76
:1014040007AA06E4F9F8D007D006121506780312E5
:10141400096C900065EEF0A3EFF0900065E0FEA388
:02142400E0FFE7
:0114260022A3
:09193800900067E0FEA3E0FF222D
:09194100900067EEF0A3EFF02224
:1018B40090006BEEF0A3EFF0900069ECF0A3EDF074
:0118C4002201
:03197900C2B422D3
:03003B00020FC1F0
:100FC100C0E0C083C082C0D075D000C004C005C0DD
:030FD10006C00750
:100FD40030DF04C2DF807D30DA04C2DA807630D9B3
:100FE4003DC2D9AFFBEFFEADEB7C00E42DFFEC3E40
:100FF40020000E900001F0A3EFF075DB11D2008009
:1010040053FE900001E0FCA3E0FDC3EF9DFFEE9CC6
:10101400A3F0A3EFF075DB00C200D20E803630D807
:1010240033C2D8900067E07002A3E06022B2B490AB
:101034000069E0FEA3E0F5EAEEF5FAA3E0FEA3E022
:10104400FF90006AE02FF0900069E03EF08005C256
:04105400B453DAFEB9
:10105800D007D006D005D004D0D0D082D083D0E03D
:011068003255
:06196D00121479D2AF2232
:101188003004047F0180027F00200A047E0180026F
:101198007E00EE5F6074E515C3950950683002362D
:1011A800750D01E515131313541FAB17AA18A919C8
:1011B800F582758300120800FFE515540704FEEF59
:1011C800A806088002C333D8FC30D70575160380FB
:1011D8002F751601802AAB17AA18A91975F002E510
:1011E80015A4F58285F083120800F50DE51575F054
:1011F80002A429F9EA35F0FA900001120800F51660
:0A1208000515D20A22C204438F101C
:0112120022B9
:100C7D00900000E014F0701F740AF0D20590002966
:100C8D00E014F07012740AF0D20890006DE014F0C8
:100C9D007005740AF0D20190002AA3E0FAA3E0F9DE
:100CAD001209A890002DA3E0FAA3E0F91209A8906B
:100CBD000039A3E0FAA3E0F91209A8900045A3E0DA
:100CCD00FAA3E0F91209A8900054A3E0FAA3E0F901
:100CDD001209A890005DA3E0FAA3E0F91209A8900B
:100CED00004BA3E0FAA3E0F91209A8EF600C900005
:100CFD001DA3E0FAA3E0F91209A890004EA3E0FAB3
:100D0D00A3E0F91209A8EF600E900020A3E0FAA36A
:100D1D00E0F91209A8D20BE512D394004016D512B2
:100D2D003030090C900023A3E0FAA3E0F91209A8D2
:100D3D00D20C801D900051A3E0FAA3E0F91209A88E
:100D4D00EF600E900023A3E0FAA3E0F91209A8D2F8
:0D0D5D000C900005A3E0FAA3E0F90209A83C
:1010690090003FA3E0FAA3E0F91209A8900042A377
:10107900E0FAA3E0F91209A8900033A3E0FAA3E08B
:10108900F91209A8900008A3E0FAA3E0F91209A847
:10109900900030A3E0FAA3E0F91209A8EF600C90E0
:1010A9000011A3E0FAA3E0F91209A8900036A3E021
:1010B900FAA3E0F91209A8EF600C900017A3E0FA6F
:1010C900A3E0F91209A8900048A3E0FAA3E0F912F5
:1010D90009A8EF600C90001AA3E0FAA3E0F912093D
:1010E900A830060EC206900026A3E0FAA3E0F91282
:0310F90009A82221
:10158A0090000BA3E0FAA3E0F91209A890003CA38B
:10159A00E0FAA3E0F91209A8EF600C900014A3E0A6
:1015AA00FAA3E0F91209A8900057A3E0FAA3E0F918
:0F15BA001209A890005AA3E0FAA3E0F90209A8C9
:10171500AF11AE10AD0FAC0E9000601209909000A5
:1017250064E514F0E4F511F510F50FF50EF51490D8
:0B173500000EA3E0FAA3E0F90209A8EF
:10164700300705C207121188300D05C20D120C7D37
:10165700300505C205121069300805C20812158A3F
:10166700300105C201121715E5112401F511E43502
:0E16770010F510E4350FF50FE4350EF50E22D8
:101213008B228A238924EFB40C005070901226F895
:1012230028287302124A02124F0212540212590260
:10123300125E02126302126802126D02127202122D
:101243007702127C0212819000058035900008809D
:101253003090000B802B90000E802690001180218F
:10126300900017801C900014801790001A80129031
:10127300001D800D900020800890002380039000C3
:0D12830026E522F0A3E523F0A3E524F022E8
:07195A007B017A0079602295
:1018C50053B1DF43B220C2B5C20A8F0C438F102239
:030053000213088D
:10130800C0E0C083C082C0D075D000C000C001C09A
:0313180002C0030D
:10131B00200313D203751B08751300751A00E50C17
:10132B00C313F50A803AE50BC394014031E51A2546
:10133B00E0F51AE50BC394034002051AD51B21E512
:10134B0013C3951C501A751B08AB1DAA1EA91F852C
:10135B001382758300E51A12082D05138002C20350
:03136B00750B00FF
:10136E00D003D002D001D000D0D0D082D083D0E034
:01137E00323C
:09194A008B1D8A1E891F8D1C22D1
:03197C00AF132284
:1016B6002003047F0180027F00200A047E0180024D
:1016C6007E00EE5F60188B178A188919EDC313F533
:1016D60009C202E4F515538FEFD2047F02227F037D
:0116E60022E1
:1015C9002003047F0180027F00200A047E0180023B
:1015D9007E00EE5F6026538FEF750D10751608D2E9
:1015E9000A438F018B178A188919ED75F008A4042D
:0F15F900F509D202E4F515D2047F02227F032206
:101864002003047F0180027F00200A047E0180029D
:0C1874007E00EE5F60037F00227F0122F7
:1017680005DC0503200201F41404B00804B00805E0
:10177800DC0A01F40A000102030501010102020367
:041788000102020355
:10182A00E53590177D93253475F003A42468F58275
:0D183A00E43417F583E493FE740193FF225C
:10189B00E53590177D93253475F003A4246AF58202
:0918AB00E43417F583E493FF22F5
:10178C0012189B8F2212182AAD227C00121290BFC5
:10179C00020C753202E522240AF5317F01227F000A
:0117AC00221A
:101847000534E53590178293FFE534C39F4007E4DD
:0D185700F5327535FF22753203753301221D
:10160800E53224FE60101460242402702E12190F93
:10161800EF702B02178C12190FEF7003021847E5B1
:1016280031601BD53118E4F5327535FF22E533609A
:0F163800021533E533700775320122E4F53222D3
:1018D5001217EDE4F5327535FFF534F533F53122A0
:1016E700EFC394055027E532600DE53590178793D2
:1016F700FEEF93C39E40168F35E4F53412190FEFB2
:0E170700700812178CEF7005800075320122F9
:0B191B00E53260047F0180027F0022A3
:03197F0002160845
:04174000153B153B05
:10174400121938A83BA60608A607A83BE6FE08E639
:0F175400FF4E600BEF24FFFFEE34FFFE12194132
:05176300053B053B22DF
:1017ED0053B1EF43B210121979E4F5D975DA49D234
:1017FD00DE90003F74FFF0A37417F0A37440F02245
:081290008E238F248C258D268E
:10129800121938EF4E7066AF26AE25121941C3E514
:1012A80024940AE5239400404BE47B18FAF9F8905B
:1012B80017AD1209801208DAC006C007AE23AF24A2
:1012C800AB07AA06E4F9F8D007D0061208DAAB078C
:1012D800AA06AFF9EFFEADE97C00E42DFFEC3ECFA6
:1012E8002BCF3AAD07FCAF03AE021218B4D2D843E5
:0F12F800DA01800612197953DAFE7F02227F0392
:0113070022C3
:0C190F00121938EF4E7002FF227F0122F7
:030000000210FCEF
:0C10FC00787FE4F6D8FD75813B021143BB
:10080000BB010CE58229F582E5833AF583E02250AD
:1008100006E92582F8E622BBFE06E92582F8E222F7
:0D082000E58229F582E5833AF583E4932211
:10082D00F8BB010DE58229F582E5833AF583E8F001
:10083D00225006E92582C8F622BBFE05E92582C8AD
:02084D00F22295
:10084F00E88FF0A4CC8BF0A42CFCE98EF0A42CFC48
:10085F008AF0EDA42CFCEA8EF0A4CDA8F08BF0A4C6
:10086F002DCC3825F0FDE98FF0A42CCD35F0FCEB25
:10087F008EF0A4FEA9F0EB8FF0A4CFC5F02ECD39EA
:0F088F00FEE43CFCEAA42DCE35F0FDE43CFC2257
:10089E0075F008758200EF2FFFEE33FECD33CDCC11
:1008AE0033CCC58233C5829BED9AEC99E582984094
:1008BE000CF582EE9BFEED9AFDEC99FC0FD5F0D671
:1008CE00E4CEFBE4CDFAE4CCF9A88222B800C1B99B
:1008DE000059BA002DEC8BF084CFCECDFCE5F0CBD9
:1008EE00F97818EF2FFFEE33FEED33FDEC33FCEB12
:1008FE0033FB10D703994004EB99FB0FD8E5E4F9CD
:10090E00FA227818EF2FFFEE33FEED33FDEC33FCB9
:10091E00C933C910D7059BE99A4007EC9BFCE99AAD
:10092E00F90FD8E0E4C9FAE4CCFB2275F010EF2FF2
:10093E00FFEE33FEED33FDCC33CCC833C810D707F2
:10094E009BEC9AE899400AED9BFDEC9AFCE899F82D
:0E095E000FD5F0DAE4CDFBE4CCFAE4C8F922C0
:10150600C2D5E830E70FB2D5E4C39BFBE49AFAE410
:1015160099F9E498F8EC30E717B2D512153C1208A1
:10152600DAE4C39BFBE49AFAE499F9E498F88003B9
:101536001208DA30D50DE4C39FFFE49EFEE49DFD5C
:04154600E49CFC2203
:10096C00E86010ECA2E713FCED13FDEE13FEEF13A1
:04097C00FFD8F0228E
:10098000E493FC740193FD740293FE740393FF22BD
:0C099000ECF0A3EDF0A3EEF0A3EFF022DA
:0C099C00A42582F582E5F03583F5832266
:0609A8008A838982E473DA
:1011080002137FE493A3F8E493A34003F68001F26B
:1011180008DFF48029E493A3F85407240CC8C333E8
:10112800C4540F4420C8834004F456800146F6DFB7
:10113800E4800B0102040810204080900F0AE47E2E
:10114800019360BCA3FF543F30E509541FFEE493AC
:10115800A360010ECF54C025E060A840B8E493A373
:10116800FAE493A3F8E493A3C8C582C8CAC583CA9E
:10117800F0A3C8C582C8CAC583CADFE9DEE780BE56
:010FC0000030
:00000001FF
