:1014550000A8C0003F065B4F666D7D077F6F0008E3
:1014650040014148BF86DBCFE6EDFD87FFEF777C86
:1013D400121544EF64037025E522B4AA20E523B472
:1013E400021B1214FCEF7015FB7A0079227D03FCBA
:0D13F40012142DEF640360057F0112153205
:0114010022C8
:101131001214B17D07E4FF121507E4FF1215327591
:10114100390A753A0A753B0A753C0A753D0A7B0AEC
:101151007D0A7F1B1214757F2B1214DD7F807E2583
:101161007D007C001210BA7B007A0079227D0A1280
:1011710015227BFF7A1379D47F0B120FC612153813
:0511810012133480FB95
:100BE800E4F58090008EE0FFB40800505F900BFCA5
:100BF800F8282873020C14020C1A020C20020C2686
:100C0800020C2C020C36020C40020C4AC2A3C2A2EF
:100C18008016C2A3C2A2801AC2A3C2A2801EC2A307
:100C2800C2A28022C2A3D2A2C2A1C2A08020C2A313
:100C3800D2A2C2A1D2A08016C2A3D2A2D2A1C2A01F
:100C4800800CC2A3D2A2D2A1D2A08002D2A3C3EFA9
:100C580064809488502990008EE0FF3395E0FE74FC
:100C6800852FF58274003EF583E0FF3395E0FE742E
:100C7800592FF58274143EF583E493F580801E9015
:100C8800008EE0FFB408133395E0FE74852FF582DB
:100C980074003EF583E0F5808003E4F580900084DD
:100CA800E0FF90008EE004FEF0D3EF6480F8EE647D
:100CB80080984014E0D36480948850047408F0222B
:090CC800900083E090008EF02200
:1014B100E4F5937594FF5395F043960F90002A74C9
:0B14C100FFF0A3740BF0A374E8F0220E
:09150700900083EFF0A3EDF02247
:10147500900085EFF0A3EDF0A3EBF0A3E539F0A321
:10148500E53AF0A3E53BF0A3E53CF0A3E53DF0220A
:0615320090008DEFF02295
:100D79004100000A4100290A41006D0A040E0000E1
:100D890000000114004600670000FFFF8FFFC10D3E
:100D9900C105C108C101C10E60240005FF1547FF47
:100DA9001547FF1547FF1547FF1547FF1547FF155E
:100DB90047FF1547FF1547FF1547FF1547FF15471C
:100DC9006036002AFF1547FF1547FF153EFF1547F7
:100DD900FF153EFF1547FF153EFF1547FF1547FF56
:100DE9001547FF153EFF153EFF153EFF153EFF1542
:0A0DF90047FF1547FF1547FF154798
:011547002281
:03153E007F002209
:10122B00438E805389F07BE07A2879017800901403
:10123B00551209A9121272EFF404F58A7BE07A2891
:10124B00790178009014551209A9121272C3E49F08
:10125B00FFE49EFE74019DFDE49CFC780812099549
:07126B008F8CD28CD2A92266
:03000B000211D906
:0411D900C0E0C0D0E2
:1011DD00D5080A75084C300D020514D20DA2037204
:1011ED00045036150AE50A7030850C0AD207300A0C
:1011FD0017E50D6007150D438F01801D538FFEC23E
:10120D00B5D51615C20A8011050BE50BD394064012
:09121D0008C203E5136002D206C9
:05122600D0D0D0E03241
:10118600300E47C20E9014551209A978101209950F
:101196008E3E8F3F900003E0FEA3E0FFE4FCFD7B64
:1011A60019FAF9F8120865C006C007AE3EAF3FABA4
:1011B60007AA06E4F9F8D007D006121272780312CD
:1011C6000995900065EEF0A3EFF0900065E0FEA3B0
:0211D600E0FF38
:0111D80022F4
:09151000900067E0FEA3E0FF2259
:09151900900067EEF0A3EFF02250
:1014CC0090006BEEF0A3EFF0900069ECF0A3EDF060
:0114DC0022ED
:03154100C2B4220F
:03003B00020CD1E3
:100CD100C0E0C083C082C0D075D000C004C005C0D0
:030CE10006C00743
:100CE40030DF04C2DF807D30DA04C2DA807630D9A6
:100CF4003DC2D9AFFBEFFEADEB7C00E42DFFEC3E33
:100D040020000E900001F0A3EFF075DB11D20080FB
:100D140053FE900001E0FCA3E0FDC3EF9DFFEE9CB9
:100D2400A3F0A3EFF075DB00C200D20E803630D8FA
:100D340033C2D8900067E07002A3E06022B2B4909E
:100D44000069E0FEA3E0F5EAEEF5FAA3E0FEA3E015
:100D5400FF90006AE02FF0900069E03EF08005C249
:040D6400B453DAFEAC
:100D6800D007D006D005D004D0D0D082D083D0E030
:010D78003248
:0615380012122BD2AF22BB
:100F3B003004047F0180027F00200A047E018002BE
:100F4B007E00EE5F6074E515C3950950683002367C
:100F5B00750D01E515131313541FAB17AA18A91917
:100F6B00F582758300120800FFE515540704FEEFA8
:100F7B00A806088002C333D8FC30D705751603804A
:100F8B002F751601802AAB17AA18A91975F002E55F
:100F9B0015A4F58285F083120800F50DE51575F0A3
:100FAB0002A429F9EA35F0FA900001120800F516AF
:0A0FBB000515D20A22C204438F106C
:010FC5002209
:100AFB00900000E014F0701F740AF0D205900029EA
:100B0B00E014F07012740AF0D20890006DE014F04B
:100B1B007005740AF0D20190002AA3E0FAA3E0F961
:100B2B001209C590002DA3E0FAA3E0F91209C590B4
:100B3B000039A3E0FAA3E0F91209C5900045A3E040
:100B4B00FAA3E0F91209C5900054A3E0FAA3E0F967
:100B5B001209C590005DA3E0FAA3E0F91209C59054
:100B6B00004BA3E0FAA3E0F91209C5EF600C90006B
:100B7B001DA3E0FAA3E0F91209C590004EA3E0FA19
:100B8B00A3E0F91209C5EF600E900020A3E0FAA3D1
:100B9B00E0F91209C5D20BE512D394004016D51219
:100BAB003030090C900023A3E0FAA3E0F91209C539
:100BBB00D20C801D900051A3E0FAA3E0F91209C5F5
:100BCB00EF600E900023A3E0FAA3E0F91209C5D25F
:0D0BDB000C900005A3E0FAA3E0F90209C5A3
:100E1C0090003FA3E0FAA3E0F91209C5900042A3A9
:100E2C00E0FAA3E0F91209C5900033A3E0FAA3E0BD
:100E3C00F91209C5900008A3E0FAA3E0F91209C55C
:100E4C00900030A3E0FAA3E0F91209C5EF600C9012
:100E5C000011A3E0FAA3E0F91209C5900036A3E053
:100E6C00FAA3E0F91209C5EF600C900017A3E0FAA1
:100E7C00A3E0F91209C5900048A3E0FAA3E0F91227
:100E8C0009C5EF600C90001AA3E0FAA3E0F912096F
:100E9C00C530060EC206900026A3E0FAA3E0F912B4
:030EAC0009C52253
:1012B60090000BA3E0FAA3E0F91209C590003CA345
:1012C600E0FAA3E0F91209C5EF600C900014A3E060
:1012D600FAA3E0F91209C5900057A3E0FAA3E0F9D2
:0F12E6001209C590005AA3E0FAA3E0F90209C566
:10140200AF11AE10AD0FAC0E9000601209B9900092
:1014120064E514F0E4F511F510F50FF50EF51490EE
:0B142200000EA3E0FAA3E0F90209C5E8
:10133400300705C207120F3B300D05C20D120AFB20
:10134400300505C205120E1C300805C2081212B67B
:10135400300105C201121402E5112401F511E4352E
:0E13640010F510E4350FF50FE4350EF50E22EE
:100FC6008B368A378938EFB40C005070900FD9F8F9
:100FD600282873020FFD02100202100702100C02ED
:100FE600101102101602101B02102002102502100A
:100FF6002A02102F021034900005803590000880D8
:101006003090000B802B90000E80269000118021DE
:10101600900017801C900014801790001A80129080
:10102600001D800D90002080089000238003900012
:0D10360026E536F0A3E537F0A3E538F022FB
:07152B007B017A00796022C8
:1014DD0053B1DF43B220C2B5C20A8F0C438F102225
:0300530002104355
:10104300C0E0C083C082C0D075D000C000C001C062
:0310530002C003D5
:10105600200313D203751B08751300751A00E50CDF
:10106600C313F50A803AE50BC394014031E51A250E
:10107600E0F51AE50BC394034002051AD51B21E5DA
:1010860013C3951C501A751B08AB1DAA1EA91F85F4
:101096001382758300E51A12082D05138002C20318
:0310A600750B00C7
:1010A900D003D002D001D000D0D0D082D083D0E0FC
:0110B9003204
:091522008B1D8A1E891F8D1C22FD
:03154400AF1322C0
:101372002003047F0180027F00200A047E01800294
:101382007E00EE5F60188B178A188919EDC313F57A
:1013920009C202E4F515538FEFD2047F02227F03C4
:0113A2002228
:1012F5002003047F0180027F00200A047E01800212
:101305007E00EE5F6026538FEF750D10751608D2BF
:101315000A438F018B178A188919ED75F008A40403
:0F132500F509D202E4F515D2047F02227F0322DC
:101495002003047F0180027F00200A047E01800270
:0C14A5007E00EE5F60037F00227F0122CA
:100E030055006E000000000000000000000000001C
:080E13000000010000000000D6
:030023000209CB04
:1009CB00C0E0C0F0C083C082C0D075D000C000C0F2
:1009DB0001C002C003C004C005C006C00730993B6C
:1009EB00C299900073E0FEA3E0FFC3900072E09FFA
:1009FB00900071E09E501F90006EE0FBA3E0FAA305
:100A0B00E0F9A3E475F00112084F85F082F583122B
:100A1B000800F5998005900075E4F0209803020A10
:100A2B00E0C298300B09C20B90007BE4F0A3F0906E
:100A3B000079E0FEA3E0FFA3E0FCA3E0FDC39FEC85
:100A4B009E5077900076E0FBA3E0FAA3E0F98D824D
:100A5B008C83E59912082D900081E0FEA3E0FFC383
:100A6B00ED9FEC9E5046900079E0FCA3E0FDEF9DDE
:100A7B00EE9C503890007EE0FBA3E0FAA3E0F990E7
:100A8B00007BE0FEA3E0FFF5828E83120800FD9051
:100A9B000076E0FBA3E0FAA3E0F98F828E831208C5
:100AAB00006D600890007B74FFF0A3F090007CE079
:100ABB0004F0700690007BE004F0900079E0FEA358
:100ACB00E0FFC390007CE09F90007BE09E4006908F
:100ADB00007D7401F0D007D006D005D004D003D030
:100AEB0002D001D000D0D0D082D083D0F0D0E03271
:0214ED001540A8
:0A14EF0090007DE0A840F6FFE4F055
:0314F90005402289
:1010BA008F398E388D378C36759850438E40538EC3
:1010CA00FE53890FE47B04FAF9F89014551209A922
:1010DA001208F0AB39AA38A937A8361208F0EFF48B
:1010EA0004F58BE47B04FAF9F89014551209A91255
:1010FA0008F0AB39AA38A937A8361208F0C3E49F1A
:10110A00FFE49EFE74019DFDE49CFC7808120982AE
:10111A008F8DC2ABD28ED2AC90004E74FFF0A37406
:07112A0014F0A374EDF022A4
:1013A300900076EBF0A3EAF0A3E9F0A3ECF0A3ED51
:1013B300F0900081E534F0A3E535F090007EE5314F
:1013C300F0A3E532F0A3E533F0D20BE490007DF017
:0113D30022F7
:10142D00900075E0701F90006EEBF0A3EAF0A3E959
:10143D00F0E4A3F0A3F0A3ECF0A3EDF0A37401F09E
:08144D00D2997F02227F0322E5
:0B14FC00900075E07002FF227F0122CB
:03000000020EAF3E
:0C0EAF00787FE4F6D8FD758140020EF655
:10080000BB010CE58229F582E5833AF583E02250AD
:1008100006E92582F8E622BBFE06E92582F8E222F7
:0D082000E58229F582E5833AF583E4932211
:10082D00F8BB010DE58229F582E5833AF583E8F001
:10083D00225006E92582C8F622BBFE05E92582C8AD
:02084D00F22295
:10084F00A3F8E0C5F025F0F0E5821582700215835C
:06085F00E0C838F0E822B9
:10086500E88FF0A4CC8BF0A42CFCE98EF0A42CFC32
:100875008AF0EDA42CFCEA8EF0A4CDA8F08BF0A4B0
:100885002DCC3825F0FDE98FF0A42CCD35F0FCEB0F
:100895008EF0A4FEA9F0EB8FF0A4CFC5F02ECD39D4
:0F08A500FEE43CFCEAA42DCE35F0FDE43CFC2241
:1008B40075F008758200EF2FFFEE33FECD33CDCCFB
:1008C40033CCC58233C5829BED9AEC99E58298407E
:1008D4000CF582EE9BFEED9AFDEC99FC0FD5F0D65B
:1008E400E4CEFBE4CDFAE4CCF9A88222B800C1B985
:1008F4000059BA002DEC8BF084CFCECDFCE5F0CBC3
:10090400F97818EF2FFFEE33FEED33FDEC33FCEBFB
:1009140033FB10D703994004EB99FB0FD8E5E4F9B6
:10092400FA227818EF2FFFEE33FEED33FDEC33FCA3
:10093400C933C910D7059BE99A4007EC9BFCE99A97
:10094400F90FD8E0E4C9FAE4CCFB2275F010EF2FDC
:10095400FFEE33FEED33FDCC33CCC833C810D707DC
:100964009BEC9AE899400AED9BFDEC9AFCE899F817
:0E0974000FD5F0DAE4CDFBE4CCFAE4C8F922AA
:10127200C2D5E830E70FB2D5E4C39BFBE49AFAE4A7
:1012820099F9E498F8EC30E717B2D51212A81208CF
:10129200F0E4C39BFBE49AFAE499F9E498F880033A
:1012A2001208F030D50DE4C39FFFE49EFEE49DFDDD
:0412B200E49CFC229A
:10098200E8600FECC313FCED13FDEE13FEEF13FF53
:03099200D8F12277
:10099500E86010ECA2E713FCED13FDEE13FEEF1378
:0409A500FFD8F02265
:1009A900E493FC740193FD740293FE740393FF2294
:0C09B900ECF0A3EDF0A3EEF0A3EFF022B1
:0609C5008A838982E473BD
:100EBB00021131E493A3F8E493A34003F68001F20B
:100ECB0008DFF48029E493A3F85407240CC8C33338
:100EDB00C4540F4420C8834004F456800146F6DF07
:100EEB00E4800B0102040810204080900D79E47E11
:100EFB00019360BCA3FF543F30E509541FFEE493FC
:100F0B00A360010ECF54C025E060A840B8E493A3C2
:100F1B00FAE493A3F8E493A3C8C582C8CAC583CAED
:100F2B00F0A3C8C582C8CAC583CADFE9DEE780BEA5
:010E1B0000D6
:00000001FF
