:1019440000A8C0003F065B4F666D7D077F6F0008EF
:1019540040014148BF86DBCFE6EDFD87FFEF000382
:021964000F3F33
:070FAC000228AAD1012DFF6C
:101A6B00EFD3940340027F03EF90196293FF021BA5
:011A7B003D2D
:10184900E52564AA7027E52664D17021AF27121A0D
:101859006BE52DF46014E527C3952D500DE5277030
:0E186900047F0480027F0212187785272D224B
:0D1AD600121AEFEF70047F0180027F0022E2
:101A39007B007A0079227D037C001218D0EF6403C1
:091A490060047F0180027F00228D
:031B4900021B522A
:101082007F04121661BF0105432A018006BF0203D5
:10109200532AFE7F01121661BF0105432A02800610
:1010A200BF0203532AFD7F05121661BF0105432AC1
:1010B200048006BF0203532AFB7F02121661BF019E
:1010C20005432A088006BF0203532AF7E4FF1216DB
:1010D200EBBF0108752E01E4FF1218777F0112168B
:1010E200EBBF0103752B017F021216EBBF010375E3
:1010F2002C01E52A600B121AFAEF70057F01121813
:10110200777522AA752301852A24E52E60034324DC
:1011120010E52B6003432420E52C60034324401296
:101122001AD6EF600D121A39EF6007E4F52EF52B8F
:02113200F52C9A
:011134002298
:10138700121A1E7D07E4FF121B0EE4FF121B3D75A8
:10139700320A75330A75340A75350A75360A7B0AB7
:1013A7007D0A7F011219871219C77F981217E77FE5
:1013B700807E257D007C001214FE75340075350093
:1013C7007536287537007538027B007A0079257DD8
:1013D700037C00121818121A8D7BFF7A1B79497F3C
:1013E700011214097BFF7A1079827F021214097B9C
:1013F700FF7A1879497F09121409121B431217A99A
:0214070080FB68
:091B05008B88898C88898F8889FE
:100FB30052007A86860086860086860086860086AC
:090FC300860086860041006F09DA
:03002B00021B377E
:061B370053BCEFD20F3297
:0209D700153DCC
:1009D900200F03020B80C20F90006EE0B4090040A3
:1009E90003020B629009F4F8282873020A3B020AF1
:1009F9000F020A21020A4D020A0F020A21020A64A1
:100A0900020A0F020A21AFBDEFFEADBE7C00E42D44
:100A1900FFEC3E900070803CAFBDEFFEADBE7C00A8
:100A2900E42DFFEC3E900072F0A3EFF0753901025E
:100A39000B68AFBDEFFEADBE7C00E42DFFEC3E9030
:100A490000748010AFBDEFFEADBE7C00E42DFFEC5D
:100A59003E900076F0A3EFF0020B68AFBDEFFEAD5C
:100A6900BE7C00E42DFFEC3E900078F0A3EFF090FF
:100A79000078E0FEA3E07807CEC313CE13D8F9A817
:100A89003DF6C394065013A83DE675F003A4247AF5
:100A9900F582E43400F583E014F090006FE014F07F
:100AA9006003020B687409F0A83DE4F6A83DE6FF6F
:100AB900C394064003020B68EF75F003A4247AF58A
:100AC90082E43400F583E0C39480502AE6FF75F090
:100AD90003A4247BF582E43400F583E0D3948040B9
:100AE90040EF75F003A4247CF582E43400F58374A7
:100AF90001F0F53A802BA83DE6FF75F003A4247BAD
:100B0900F582E43400F583E0C394805014EF75F066
:100B190003A4247CF582E43400F5837402F0753A69
:100B290001A83DE6FF75F003A4247AF582E43400B8
:100B3900F583E0FEEF75F003A4247BF582E434002D
:100B4900F583EEF0E675F003A4247AF582E4340027
:100B5900F5837486F006020AB590006E74FFF09072
:100B6900006EE0D39407400374FFF090006EE00438
:070B7900F0901B0593F5BC91
:030B8000053D220E
:021AAC00153DE6
:091AAE00A83DA63AE4F53AE6FF72
:031AB700053D22C8
:021ABA00153DD8
:091ABC00A83DA639E4F539E6FF66
:031AC500053D22BA
:1017E7008F9D75BC88439720D2AD90004574FFF05C
:1017F700A37409F0A374D7F0A374FFF0A3741AF0CD
:10180700A374ACF0A374FFF0A3741AF0A374BAF036
:0118170022AE
:071B29007B017A00797022B4
:10166100C3EF64809480403BD3EF64809485503312
:10167100EFFD3395E0FC90007C75F003ED1209C598
:10168100EC75F003A42583F583E0FE90007C75F0F2
:1016910003ED1209C5EC75F003A42583F583E4F08D
:0516A100AF06227F03EB
:0116A6002221
:100EC300E4F5809000ACE0FFB40800505F900ED7CB
:100ED300F8282873020EEF020EF5020EFB020F0133
:100EE300020F07020F11020F1B020F25C2A3C2A29A
:100EF3008016C2A3C2A2801AC2A3C2A2801EC2A32A
:100F0300C2A28022C2A3D2A2C2A1C2A08020C2A335
:100F1300D2A2C2A1D2A08016C2A3D2A2D2A1C2A041
:100F2300800CC2A3D2A2D2A1D2A08002D2A3C3EFCB
:100F33006480948850299000ACE0FF3395E0FE7400
:100F4300A32FF58274003EF583E0FF3395E0FE7432
:100F5300482FF58274193EF583E493F580801E9043
:100F630000ACE0FFB408133395E0FE74A32FF582C1
:100F730074003EF583E0F5808003E4F5809000A2E1
:100F8300E0FF9000ACE004FEF0D3EF6480F8EE6481
:100F930080984014E0D36480948850047408F0224D
:090FA3009000A1E09000ACF022E6
:101A1E00E4F5937594FF5395F043960F90002A7456
:0B1A2E00FFF0A3740EF0A374C3F022BD
:091B0E009000A1EFF0A3EDF0221C
:101987009000A3EFF0A3EDF0A3EBF0A3E532F0A3F3
:10199700E533F0A3E534F0A3E535F0A3E536F0220F
:061B3D009000ABEFF02266
:100FCC00011F004900AE9494009494009494004145
:030FDC0000AD1E47
:020CB300153DED
:100CB50020B2069000AEE014F020B3069000B1E03B
:100CC50014F02097069000B4E014F09000ADE01405
:100CD500F06003020DD3741EF0A83DE4F6A83DE6CE
:100CE500FFC3648094834003020DD3EF3395E0FE88
:100CF5009000AE75F003EF1209C5EE75F003A4255B
:100D050083F583E0C3948050399000AF75F003EF0D
:100D15001209C5EE75F003A42583F583E0D394800D
:100D2500405AE6FF3395E0FE9000B075F003EF12F0
:100D350009C5EE75F003A42583F5837401F0F51F4D
:100D4500803AA83DE6FF3395E0FE9000AF75F003CD
:100D5500EF1209C5EE75F003A42583F583E0C3946E
:100D65008050199000B075F003EF1209C5EE75F0CB
:100D750003A42583F5837402F0751F01A83DE6FFE2
:100D8500FD3395E0FC9000AE75F003ED1209C5EC5E
:100D950075F003A42583F583E0FE9000AF75F0039D
:100DA500ED1209C5EC75F003A42583F583EEF0EF8C
:100DB5003395E0FE9000AE75F003EF1209C5EE75B0
:0E0DC500F003A42583F5837494F006020CE27B
:030DD300053D22B9
:021AC800153DCA
:091ACA00A83DA61FE4F51FE6FF8C
:031AD300053D22AC
:1019C70090003074FFF0A3741AF0A374C8F090006D
:0D19D7002D74FFF0A3740CF0A374B3F02284
:1016EB00EF600764016003BF0233EFFD3395E0FC4D
:1016FB009000B075F003ED1209C5EC75F003A4254D
:10170B0083F583E0FE9000B075F003ED1209C5EC94
:0F171B0075F003A42583F583E4F0AF06227F0366
:01172A00229C
:100FDF004100000A4100290A41006D0A040E000079
:100FEF0000000114004600670000FFFF8FFFC10DD6
:100FFF00C105C108C101C10E60240005FF1B55FFCB
:10100F001B55FF1B55FF1B55FF1B55FF1B55FF1B8B
:10101F0055FF1B55FF1B55FF1B55FF1B55FF1B5541
:10102F006036002AFF1B55FF1B55FF1B4CFF1B553E
:10103F00FF1B4CFF1B55FF1B4CFF1B55FF1B55FF89
:10104F001B55FF1B4CFF1B4CFF1B4CFF1B4CFF1B6F
:0A105F0055FF1B55FF1B55FF1B55E5
:011B5500226D
:031B4C007F0022F5
:10161A00438E805389F07BE07A287901780090190B
:10162A00441209A91216A7EFF404F58A7BE07A2876
:10163A00790178009019441209A91216A7C3E49FE8
:10164A00FFE49EFE74019DFDE49CFC780812099556
:07165A008F8CD28CD2A92273
:03000B000215C813
:0415C800C0E0C0D0EF
:1015CC00D5080A75084C300D020514D20DA2037211
:1015DC00045036150AE50A7030850C0AD207300A19
:1015EC0017E50D6007150D438F01801D538FFEC24B
:1015FC00B5D51615C20A8011050BE50BD394064020
:09160C0008C203E5136002D206D6
:05161500D0D0D0E0324E
:10157500300E47C20E9019441209A9781012099528
:101585008E3B8F3C900003E0FEA3E0FFE4FCFD7B77
:1015950019FAF9F8120865C006C007AE3BAF3CABB7
:1015A50007AA06E4F9F8D007D0061216A7780312A1
:1015B5000995900065EEF0A3EFF0900065E0FEA3BD
:0215C500E0FF45
:0115C7002201
:091B1700900067E0FEA3E0FF224C
:091B2000900067EEF0A3EFF02243
:101A7C0090006BEEF0A3EFF0900069ECF0A3EDF0AA
:011A8C002237
:031B4F00C2B422FB
:03003B000211357A
:10113500C0E0C083C082C0D075D000C004C005C067
:0311450006C007DA
:1011480030DF04C2DF807D30DA04C2DA807630D93D
:101158003DC2D9AFFBEFFEADEB7C00E42DFFEC3ECA
:1011680020000E900001F0A3EFF075DB11D2008093
:1011780053FE900001E0FCA3E0FDC3EF9DFFEE9C51
:10118800A3F0A3EFF075DB00C200D20E803630D892
:1011980033C2D8900067E07002A3E06022B2B49036
:1011A8000069E0FEA3E0F5EAEEF5FAA3E0FEA3E0AD
:1011B800FF90006AE02FF0900069E03EF08005C2E1
:0411C800B453DAFE44
:1011CC00D007D006D005D004D0D0D082D083D0E0C8
:0111DC0032E0
:061B430012161AD2AF22B7
:1012FC003004047F0180027F00200A047E018002FA
:10130C007E00EE5F6074E515C395095068300236B7
:10131C00750D01E515131313541FAB17AA18A91952
:10132C00F582758300120800FFE515540704FEEFE3
:10133C00A806088002C333D8FC30D7057516038085
:10134C002F751601802AAB17AA18A91975F002E59A
:10135C0015A4F58285F083120800F50DE51575F0DE
:10136C0002A429F9EA35F0FA900001120800F516EA
:0A137C000515D20A22C204438F10A7
:011386002244
:100DD600900000E014F0701F740AF0D2059000290C
:100DE600E014F07012740AF0D20890006DE014F06E
:100DF6007005740AF0D20190002AA3E0FAA3E0F984
:100E06001209D190002DA3E0FAA3E0F91209D190BE
:100E16000039A3E0FAA3E0F91209D1900045A3E056
:100E2600FAA3E0F91209D1900054A3E0FAA3E0F97D
:100E36001209D190005DA3E0FAA3E0F91209D1905E
:100E4600004BA3E0FAA3E0F91209D1EF600C900081
:100E56001DA3E0FAA3E0F91209D190004EA3E0FA2F
:100E6600A3E0F91209D1EF600E900020A3E0FAA3E7
:100E7600E0F91209D1D20BE512D394004016D5122F
:100E86003030090C900023A3E0FAA3E0F91209D14F
:100E9600D20C801D900051A3E0FAA3E0F91209D10B
:100EA600EF600E900023A3E0FAA3E0F91209D1D275
:0D0EB6000C900005A3E0FAA3E0F90209D1B9
:1011DD0090003FA3E0FAA3E0F91209D1900042A3D9
:1011ED00E0FAA3E0F91209D1900033A3E0FAA3E0ED
:1011FD00F91209D1900008A3E0FAA3E0F91209D180
:10120D00900030A3E0FAA3E0F91209D1EF600C9041
:10121D000011A3E0FAA3E0F91209D1900036A3E082
:10122D00FAA3E0F91209D1EF600C900017A3E0FAD0
:10123D00A3E0F91209D1900048A3E0FAA3E0F91256
:10124D0009D1EF600C90001AA3E0FAA3E0F912099E
:10125D00D130060EC206900026A3E0FAA3E0F912E3
:03126D0009D12282
:10172B0090000BA3E0FAA3E0F91209D190003CA3BF
:10173B00E0FAA3E0F91209D1EF600C900014A3E0DA
:10174B00FAA3E0F91209D1900057A3E0FAA3E0F94C
:0F175B001209D190005AA3E0FAA3E0F90209D1D4
:1018A500AF11AE10AD0FAC0E9000601209B99000EB
:1018B50064E514F0E4F511F510F50FF50EF5149047
:0B18C500000EA3E0FAA3E0F90209D135
:1017A900300705C2071212FC300D05C20D120DD605
:1017B900300505C2051211DD300805C20812172BC4
:1017C900300105C2011218A5E5112401F511E4350E
:0E17D90010F510E4350FF50FE4350EF50E2275
:101409008B2F8A308931EFB40C00507090141CF87E
:1014190028287302144002144502144A02144F0288
:10142900145402145902145E02146302146802145B
:101439006D021472021477900005803590000880BF
:101449003090000B802B90000E8026900011802197
:10145900900017801C900014801790001A80129039
:10146900001D800D900020800890002380039000CB
:0D14790026E52FF0A3E530F0A3E531F022C9
:071B30007B017A00796022BD
:1010690055008C0000000000000000000000000096
:0810790000000100000000006E
:03002300020B834A
:100B8300C0E0C0F0C083C082C0D075D000C000C038
:100B930001C002C003C004C005C006C00730993BB2
:100BA300C299900091E0FEA3E0FFC3900090E09F04
:100BB30090008FE09E501F90008CE0FBA3E0FAA30F
:100BC300E0F9A3E475F00112084F85F082F5831272
:100BD3000800F5998005900093E4F0209803020C37
:100BE30098C298300B09C20B900099E4F0A3F090DF
:100BF3000097E0FEA3E0FFA3E0FCA3E0FDC39FECAE
:100C03009E5077900094E0FBA3E0FAA3E0F98D8275
:100C13008C83E59912082D90009FE0FEA3E0FFC3AB
:100C2300ED9FEC9E5046900097E0FCA3E0FDEF9D06
:100C3300EE9C503890009CE0FBA3E0FAA3E0F9900F
:100C43000099E0FEA3E0FFF5828E83120800FD9079
:100C53000094E0FBA3E0FAA3E0F98F828E831208ED
:100C6300006D600890009974FFF0A3F090009AE083
:100C730004F07006900099E004F0900097E0FEA362
:100C8300E0FFC390009AE09F900099E09E40069099
:100C9300009B7401F0D007D006D005D004D003D058
:100CA30002D001D000D0D0D082D083D0F0D0E032B7
:021A9D00153DF5
:0A1A9F0090009BE0A83DF6FFE4F084
:031AA900053D22D6
:1014FE008F328E318D308C2F759850438E40538E97
:10150E00FE53890FE47B04FAF9F89019441209A9E5
:10151E001208F0AB32AA31A930A82F1208F0EFF45E
:10152E0004F58BE47B04FAF9F89019441209A91218
:10153E0008F0AB32AA31A930A82F1208F0C3E49FED
:10154E00FFE49EFE74019DFDE49CFC780812098266
:10155E008F8DC2ABD28ED2AC90004E74FFF0A374BE
:07156E001AF0A3749DF022A6
:10181800900094EBF0A3EAF0A3E9F0A3ECF0A3EDB9
:10182800F090009FE537F0A3E538F090009CE53490
:10183800F0A3E535F0A3E536F0D20BE490009BF079
:01184800227D
:1018D000900093E0701F90008CEBF0A3EAF0A3E976
:1018E000F0E4A3F0A3F0A3ECF0A3EDF0A37401F0F7
:0818F000D2997F02227F03223E
:0B1AEF00900093E07002FF227F0122B4
:1019200005DC0503200201F41404B00804B0080526
:10193000DC0A01F40A0001020305010101020203AD
:04194000010202039B
:1019E400E51E90193593251D75F003A42420F58276
:0D19F400E43419F583E493FE740193FF229F
:101A5200E51E90193593251D75F003A42422F58205
:091A6200E43419F583E493FF223A
:10196600121A528F2F1219E4AD2F7C00121486BF63
:10197600020C751B02E52F240AF51A7F01227F004F
:01198600223E
:101A0100051DE51E90193A93FFE51DC39F4007E4AC
:0D1A1100F51B751EFF22751B03751C0122BD
:10176A00E51B24FE60101460242402702E121AE372
:10177A00EF702B021966121AE3EF7003021A01E5E1
:10178A001A601BD51A18E4F51B751EFF22E51C60AA
:0F179A0002151CE51C7007751B0122E4F51B22CC
:101A8D001219A7E4F51B751EFFF51DF51CF51A229D
:10187700EFC394055027E51B600DE51E90193F93B4
:10188700FEEF93C39E40168F1EE4F51D121AE3EF79
:0E1897007008121966EF70058000751B0122A3
:0B1AFA00E51B60047F0180027F0022DA
:031B520002176A0D
:0418F800153D153D48
:1018FC00121B17A83DA60608A607A83DE6FE08E69B
:0F190C00FF4E600BEF24FFFFEE34FFFE121B2097
:05191B00053D053D2221
:1019A70053B1EF43B210121B4FE4F5D975DA49D2A0
:1019B700DE90003F74FFF0A37418F0A374F8F022D0
:081486008E308F318C328D3362
:10148E00121B17EF4E7066AF33AE32121B20C3E540
:10149E0031940AE5309400404BE47B18FAF9F89049
:1014AE0019441209A91208F0C006C007AE30AF31B8
:1014BE00AB07AA06E4F9F8D007D0061208F0AB077E
:1014CE00AA06AFF9EFFEADE97C00E42DFFEC3ECFAE
:1014DE002BCF3AAD07FCAF03AE02121A7CD2D84323
:0F14EE00DA018006121B4F53DAFE7F02227F03C2
:0114FD0022CC
:0C1AE300121B17EF4E7002FF227F012241
:0300000002127079
:0C127000787FE4F6D8FD75813D0212B7CE
:10080000BB010CE58229F582E5833AF583E02250AD
:1008100006E92582F8E622BBFE06E92582F8E222F7
:0D082000E58229F582E5833AF583E4932211
:10082D00F8BB010DE58229F582E5833AF583E8F001
:10083D00225006E92582C8F622BBFE05E92582C8AD
:02084D00F22295
:10084F00A3F8E0C5F025F0F0E5821582700215835C
:06085F00E0C838F0E822B9
:10086500E88FF0A4CC8BF0A42CFCE98EF0A42CFC32
:100875008AF0EDA42CFCEA8EF0A4CDA8F08BF0A4B0
:100885002DCC3825F0FDE98FF0A42CCD35F0FCEB0F
:100895008EF0A4FEA9F0EB8FF0A4CFC5F02ECD39D4
:0F08A500FEE43CFCEAA42DCE35F0FDE43CFC2241
:1008B40075F008758200EF2FFFEE33FECD33CDCCFB
:1008C40033CCC58233C5829BED9AEC99E58298407E
:1008D4000CF582EE9BFEED9AFDEC99FC0FD5F0D65B
:1008E400E4CEFBE4CDFAE4CCF9A88222B800C1B985
:1008F4000059BA002DEC8BF084CFCECDFCE5F0CBC3
:10090400F97818EF2FFFEE33FEED33FDEC33FCEBFB
:1009140033FB10D703994004EB99FB0FD8E5E4F9B6
:10092400FA227818EF2FFFEE33FEED33FDEC33FCA3
:10093400C933C910D7059BE99A4007EC9BFCE99A97
:10094400F90FD8E0E4C9FAE4CCFB2275F010EF2FDC
:10095400FFEE33FEED33FDCC33CCC833C810D707DC
:100964009BEC9AE899400AED9BFDEC9AFCE899F817
:0E0974000FD5F0DAE4CDFBE4CCFAE4C8F922AA
:1016A700C2D5E830E70FB2D5E4C39BFBE49AFAE46E
:1016B70099F9E498F8EC30E717B2D51216DD12085D
:1016C700F0E4C39BFBE49AFAE499F9E498F8800301
:1016D7001208F030D50DE4C39FFFE49EFEE49DFDA4
:0416E700E49CFC2261
:10098200E8600FECC313FCED13FDEE13FEEF13FF53
:03099200D8F12277
:10099500E86010ECA2E713FCED13FDEE13FEEF1378
:0409A500FFD8F02265
:1009A900E493FC740193FD740293FE740393FF2294
:0C09B900ECF0A3EDF0A3EEF0A3EFF022B1
:0C09C500A42582F582E5F03583F583223D
:0609D1008A838982E473B1
:10127C00021387E493A3F8E493A34003F68001F2EE
:10128C0008DFF48029E493A3F85407240CC8C33373
:10129C00C4540F4420C8834004F456800146F6DF42
:1012AC00E4800B0102040810204080900FACE47E17
:1012BC00019360BCA3FF543F30E509541FFEE49337
:1012CC00A360010ECF54C025E060A840B8E493A3FE
:1012DC00FAE493A3F8E493A3C8C582C8CAC583CA29
:1012EC00F0A3C8C582C8CAC583CADFE9DEE780BEE1
:01108100006E
:00000001FF
