:1017B50000A8C0003F065B4F666D7D077F6F000880
:0E17C50040014148BF86DBCFE6EDFD87FFEF18
:0D186E0012187BEF70047F0180027F0022C2
:10180B007B007A0079347D037C0012176DEF640343
:09181B0060047F0180027F0022BD
:101123007F04121599BF01054337018006BF0203EF
:101133005337FE7F01121599BF010543370280061D
:10114300BF02035337FD7F05121599BF01054337CE
:10115300048006BF02035337FB7F02121599BF01B8
:10116300054337088006BF02035337F7E4FF12161F
:1011730023BF0103753A017F01121623BF010375D3
:1011830038017F02121623BF01037539017534AA92
:10119300753502853736E53A6003433610E5386026
:1011A30003433620E539600343364012186EEF607F
:0E11B3000D12180BEF6007E4F53AF538F53928
:0111C100220B
:101505001217F07D07E4FF12188F7F801218BE7541
:101515002F0A75300A75310A75320A75330A7B0A46
:101525007D0A7F021217951217D37F981216E07F56
:10153500807E257D007C001213E97BFF7A117923DB
:0D1545007F0212136C1218C41216A280FB54
:091886008B88898C88898F888980
:100FAC0052007A86860086860086860086860086B3
:090FBC00860086860041006F09E1
:03002B000218B800
:0618B80053BCEFD20F3219
:0209D700151FEA
:1009D900200F03020B80C20F90006EE0B4090040A3
:1009E90003020B629009F4F8282873020A3B020AF1
:1009F9000F020A21020A4D020A0F020A21020A64A1
:100A0900020A0F020A21AFBDEFFEADBE7C00E42D44
:100A1900FFEC3E900070803CAFBDEFFEADBE7C00A8
:100A2900E42DFFEC3E900072F0A3EFF0751A01027D
:100A39000B68AFBDEFFEADBE7C00E42DFFEC3E9030
:100A490000748010AFBDEFFEADBE7C00E42DFFEC5D
:100A59003E900076F0A3EFF0020B68AFBDEFFEAD5C
:100A6900BE7C00E42DFFEC3E900078F0A3EFF090FF
:100A79000078E0FEA3E07807CEC313CE13D8F9A817
:100A89001FF6C394065013A81FE675F003A4247A31
:100A9900F582E43400F583E014F090006FE014F07F
:100AA9006003020B687409F0A81FE4F6A81FE6FFAB
:100AB900C394064003020B68EF75F003A4247AF58A
:100AC90082E43400F583E0C39480502AE6FF75F090
:100AD90003A4247BF582E43400F583E0D3948040B9
:100AE90040EF75F003A4247CF582E43400F58374A7
:100AF90001F0F51B802BA81FE6FF75F003A4247BEA
:100B0900F582E43400F583E0C394805014EF75F066
:100B190003A4247CF582E43400F5837402F0751B88
:100B290001A81FE6FF75F003A4247AF582E43400D6
:100B3900F583E0FEEF75F003A4247BF582E434002D
:100B4900F583EEF0E675F003A4247AF582E4340027
:100B5900F5837486F006020AB590006E74FFF09072
:100B6900006EE0D39407400374FFF090006EE00438
:070B7900F090188693F5BC13
:030B8000051F222C
:02184400151F6E
:09184600A81FA61BE4F51BE6FF38
:03184F00051F2250
:02185200151F60
:09185400A81FA61AE4F51AE6FF2C
:03185D00051F2242
:1016E0008F9D75BC88439720D2AD90004574FFF064
:1016F000A37409F0A374D7F0A374FFF0A37418F0D7
:10170000A37444F0A374FFF0A37418F0A37452F010
:0117100022B6
:0718AA007B017A0079702236
:10159900C3EF64809480403BD3EF648094855033DB
:1015A900EFFD3395E0FC90007C75F003ED1209C561
:1015B900EC75F003A42583F583E0FE90007C75F0BB
:1015C90003ED1209C5EC75F003A42583F583E4F056
:0515D900AF06227F03B4
:0115DE0022EA
:100EC300E4F5809000ACE0FFB40800505F900ED7CB
:100ED300F8282873020EEF020EF5020EFB020F0133
:100EE300020F07020F11020F1B020F25C2A3C2A29A
:100EF3008016C2A3C2A2801AC2A3C2A2801EC2A32A
:100F0300C2A28022C2A3D2A2C2A1C2A08020C2A335
:100F1300D2A2C2A1D2A08016C2A3D2A2D2A1C2A041
:100F2300800CC2A3D2A2D2A1D2A08002D2A3C3EFCB
:100F33006480948850299000ACE0FF3395E0FE7400
:100F4300A32FF58274003EF583E0FF3395E0FE7432
:100F5300B92FF58274173EF583E493F580801E90D4
:100F630000ACE0FFB408133395E0FE74A32FF582C1
:100F730074003EF583E0F5808003E4F5809000A2E1
:100F8300E0FF9000ACE004FEF0D3EF6480F8EE6481
:100F930080984014E0D36480948850047408F0224D
:090FA3009000A1E09000ACF022E6
:1017F000E4F5937594FF5395F043960F90002A7487
:0B180000FFF0A3740EF0A374C3F022ED
:09188F009000A1EFF0A3EDF0229E
:101795009000A3EFF0A3EDF0A3EBF0A3E52FF0A3EA
:1017A500E530F0A3E531F0A3E532F0A3E533F0220F
:0618BE009000ABEFF022E8
:100FC500011E004900AE949400949400949400414D
:030FD50000AD1E4E
:020CB300151F0B
:100CB50020B2069000AEE014F020B3069000B1E03B
:100CC50014F02097069000B4E014F09000ADE01405
:100CD500F06003020DD3741EF0A81FE4F6A81FE60A
:100CE500FFC3648094834003020DD3EF3395E0FE88
:100CF5009000AE75F003EF1209C5EE75F003A4255B
:100D050083F583E0C3948050399000AF75F003EF0D
:100D15001209C5EE75F003A42583F583E0D394800D
:100D2500405AE6FF3395E0FE9000B075F003EF12F0
:100D350009C5EE75F003A42583F5837401F0F51E4E
:100D4500803AA81FE6FF3395E0FE9000AF75F003EB
:100D5500EF1209C5EE75F003A42583F583E0C3946E
:100D65008050199000B075F003EF1209C5EE75F0CB
:100D750003A42583F5837402F0751E01A81FE6FF01
:100D8500FD3395E0FC9000AE75F003ED1209C5EC5E
:100D950075F003A42583F583E0FE9000AF75F0039D
:100DA500ED1209C5EC75F003A42583F583EEF0EF8C
:100DB5003395E0FE9000AE75F003EF1209C5EE75B0
:0E0DC500F003A42583F5837494F006020CE27B
:030DD300051F22D7
:02186000151F52
:09186200A81FA61EE4F51EE6FF16
:03186B00051F2234
:1017D30090003074FFF0A37418F0A37460F09000CD
:0D17E3002D74FFF0A3740CF0A374B3F0227A
:10162300EF600764016003BF0233EFFD3395E0FC15
:101633009000B075F003ED1209C5EC75F003A42515
:1016430083F583E0FE9000B075F003ED1209C5EC5D
:0F16530075F003A42583F583E4F0AF06227F032F
:011662002265
:100FD8004100000A4100290A41006D0A040E000080
:100FE80000000114004600670000FFFF8FFFC10DDD
:100FF800C105C108C101C10E60240005FF18D0FF5A
:1010080018D0FF18D0FF18D0FF18D0FF18D0FF183D
:10101800D0FF18D0FF18D0FF18D0FF18D0FF18D075
:101028006036002AFF18D0FF18D0FF18CAFF18D062
:10103800FF18CAFF18D0FF18CAFF18D0FF18D0FF32
:1010480018D0FF18CAFF18CAFF18CAFF18CAFF1815
:0A105800D0FF18D0FF18D0FF18D009
:0118D00022F5
:0318CA007F00227A
:10155200438E805389F07BE07A28790178009017D6
:10156200B51209A91215DFEFF404F58A7BE07A2897
:10157200790178009017B51209A91215DFC3E49F0B
:10158200FFE49EFE74019DFDE49CFC78081209951F
:071592008F8CD28CD2A9223C
:03000B000214B329
:0414B300C0E0C0D005
:1014B700D5080A75084C300D020514D20DA2037227
:1014C700045036150AE50A7030850C0AD207300A2F
:1014D70017E50D6007150D438F01801D538FFEC261
:1014E700B5D51615C20A8011050BE50BD394064036
:0914F70008C203E5136002D206ED
:05150000D0D0D0E03264
:10146000300E47C20E9017B51209A97810120995CF
:101470008E1C8F1D900003E0FEA3E0FFE4FCFD7BCB
:1014800019FAF9F8120865C006C007AE1CAF1DAB0B
:1014900007AA06E4F9F8D007D0061215DF78031280
:1014A0000995900065EEF0A3EFF0900065E0FEA3D3
:0214B000E0FF5B
:0114B2002217
:09189800900067E0FEA3E0FF22CE
:0918A100900067EEF0A3EFF022C5
:1018240090006BEEF0A3EFF0900069ECF0A3EDF004
:011834002291
:0318CD00C2B42280
:03003B0002107B35
:10107B00C0E0C083C082C0D075D000C004C005C022
:03108B0006C00795
:10108E0030DF04C2DF807D30DA04C2DA807630D9F8
:10109E003DC2D9AFFBEFFEADEB7C00E42DFFEC3E85
:1010AE0020000E900001F0A3EFF075DB11D200804E
:1010BE0053FE900001E0FCA3E0FDC3EF9DFFEE9C0C
:1010CE00A3F0A3EFF075DB00C200D20E803630D84D
:1010DE0033C2D8900067E07002A3E06022B2B490F1
:1010EE000069E0FEA3E0F5EAEEF5FAA3E0FEA3E068
:1010FE00FF90006AE02FF0900069E03EF08005C29C
:04110E00B453DAFEFE
:10111200D007D006D005D004D0D0D082D083D0E082
:01112200329A
:0618C400121552D2AF2202
:1012E1003004047F0180027F00200A047E01800215
:1012F1007E00EE5F6074E515C395095068300236D3
:10130100750D01E515131313541FAB17AA18A9196D
:10131100F582758300120800FFE515540704FEEFFE
:10132100A806088002C333D8FC30D70575160380A0
:101331002F751601802AAB17AA18A91975F002E5B5
:1013410015A4F58285F083120800F50DE51575F0F9
:1013510002A429F9EA35F0FA900001120800F51605
:0A1361000515D20A22C204438F10C2
:01136B00225F
:100DD600900000E014F0701F740AF0D2059000290C
:100DE600E014F07012740AF0D20890006DE014F06E
:100DF6007005740AF0D20190002AA3E0FAA3E0F984
:100E06001209D190002DA3E0FAA3E0F91209D190BE
:100E16000039A3E0FAA3E0F91209D1900045A3E056
:100E2600FAA3E0F91209D1900054A3E0FAA3E0F97D
:100E36001209D190005DA3E0FAA3E0F91209D1905E
:100E4600004BA3E0FAA3E0F91209D1EF600C900081
:100E56001DA3E0FAA3E0F91209D190004EA3E0FA2F
:100E6600A3E0F91209D1EF600E900020A3E0FAA3E7
:100E7600E0F91209D1D20BE512D394004016D5122F
:100E86003030090C900023A3E0FAA3E0F91209D14F
:100E9600D20C801D900051A3E0FAA3E0F91209D10B
:100EA600EF600E900023A3E0FAA3E0F91209D1D275
:0D0EB6000C900005A3E0FAA3E0F90209D1B9
:1011C20090003FA3E0FAA3E0F91209D1900042A3F4
:1011D200E0FAA3E0F91209D1900033A3E0FAA3E008
:1011E200F91209D1900008A3E0FAA3E0F91209D19B
:1011F200900030A3E0FAA3E0F91209D1EF600C905D
:101202000011A3E0FAA3E0F91209D1900036A3E09D
:10121200FAA3E0F91209D1EF600C900017A3E0FAEB
:10122200A3E0F91209D1900048A3E0FAA3E0F91271
:1012320009D1EF600C90001AA3E0FAA3E0F91209B9
:10124200D130060EC206900026A3E0FAA3E0F912FE
:0312520009D1229D
:1016630090000BA3E0FAA3E0F91209D190003CA388
:10167300E0FAA3E0F91209D1EF600C900014A3E0A3
:10168300FAA3E0F91209D1900057A3E0FAA3E0F915
:0F1693001209D190005AA3E0FAA3E0F90209D19D
:10174200AF11AE10AD0FAC0E9000601209B990004F
:1017520064E514F0E4F511F510F50FF50EF51490AB
:0B176200000EA3E0FAA3E0F90209D199
:1016A200300705C2071212E1300D05C20D120DD628
:1016B200300505C2051211C2300805C208121663B0
:1016C200300105C201121742E5112401F511E4357A
:0E16D20010F510E4350FF50FE4350EF50E227D
:10136C008B2C8A2D892EEFB40C00507090137FF8C3
:10137C002828730213A30213A80213AD0213B2029E
:10138C0013B70213BC0213C10213C60213CB021310
:10139C00D00213D50213DA90000580359000088036
:1013AC003090000B802B90000E8026900011802135
:1013BC00900017801C900014801790001A801290D7
:1013CC00001D800D90002080089000238003900069
:0D13DC0026E52CF0A3E52DF0A3E52EF02270
:0718B1007B017A007960223F
:1010620055008C000000000000000000000000009D
:08107200000001000000000075
:03002300020B834A
:100B8300C0E0C0F0C083C082C0D075D000C000C038
:100B930001C002C003C004C005C006C00730993BB2
:100BA300C299900091E0FEA3E0FFC3900090E09F04
:100BB30090008FE09E501F90008CE0FBA3E0FAA30F
:100BC300E0F9A3E475F00112084F85F082F5831272
:100BD3000800F5998005900093E4F0209803020C37
:100BE30098C298300B09C20B900099E4F0A3F090DF
:100BF3000097E0FEA3E0FFA3E0FCA3E0FDC39FECAE
:100C03009E5077900094E0FBA3E0FAA3E0F98D8275
:100C13008C83E59912082D90009FE0FEA3E0FFC3AB
:100C2300ED9FEC9E5046900097E0FCA3E0FDEF9D06
:100C3300EE9C503890009CE0FBA3E0FAA3E0F9900F
:100C43000099E0FEA3E0FFF5828E83120800FD9079
:100C53000094E0FBA3E0FAA3E0F98F828E831208ED
:100C6300006D600890009974FFF0A3F090009AE083
:100C730004F07006900099E004F0900097E0FEA362
:100C8300E0FFC390009AE09F900099E09E40069099
:100C9300009B7401F0D007D006D005D004D003D058
:100CA30002D001D000D0D0D082D083D0F0D0E032B7
:02183500151F7D
:0A18370090009BE0A81FF6FFE4F00C
:03184100051F225E
:1013E9008F2F8E2E8D2D8C2C759850438E40538EB9
:1013F900FE53890FE47B04FAF9F89017B51209A98D
:101409001208F0AB2FAA2EA92DA82C1208F0EFF480
:1014190004F58BE47B04FAF9F89017B51209A912BF
:1014290008F0AB2FAA2EA92DA82C1208F0C3E49F0F
:10143900FFE49EFE74019DFDE49CFC78081209827C
:101449008F8DC2ABD28ED2AC90004E74FFF0A374D4
:0714590018F0A37435F02226
:10171100900094EBF0A3EAF0A3E9F0A3ECF0A3EDC1
:10172100F090009FE52AF0A3E52BF090009CE527BF
:10173100F0A3E528F0A3E529F0D20BE490009BF09B
:011741002285
:10176D00900093E0701F90008CEBF0A3EAF0A3E9DA
:10177D00F0E4A3F0A3F0A3ECF0A3EDF0A37401F05B
:08178D00D2997F02227F0322A2
:0B187B00900093E07002FF227F01222A
:0300000002125594
:0C125500787FE4F6D8FD75813A02129C07
:10080000BB010CE58229F582E5833AF583E02250AD
:1008100006E92582F8E622BBFE06E92582F8E222F7
:0D082000E58229F582E5833AF583E4932211
:10082D00F8BB010DE58229F582E5833AF583E8F001
:10083D00225006E92582C8F622BBFE05E92582C8AD
:02084D00F22295
:10084F00A3F8E0C5F025F0F0E5821582700215835C
:06085F00E0C838F0E822B9
:10086500E88FF0A4CC8BF0A42CFCE98EF0A42CFC32
:100875008AF0EDA42CFCEA8EF0A4CDA8F08BF0A4B0
:100885002DCC3825F0FDE98FF0A42CCD35F0FCEB0F
:100895008EF0A4FEA9F0EB8FF0A4CFC5F02ECD39D4
:0F08A500FEE43CFCEAA42DCE35F0FDE43CFC2241
:1008B40075F008758200EF2FFFEE33FECD33CDCCFB
:1008C40033CCC58233C5829BED9AEC99E58298407E
:1008D4000CF582EE9BFEED9AFDEC99FC0FD5F0D65B
:1008E400E4CEFBE4CDFAE4CCF9A88222B800C1B985
:1008F4000059BA002DEC8BF084CFCECDFCE5F0CBC3
:10090400F97818EF2FFFEE33FEED33FDEC33FCEBFB
:1009140033FB10D703994004EB99FB0FD8E5E4F9B6
:10092400FA227818EF2FFFEE33FEED33FDEC33FCA3
:10093400C933C910D7059BE99A4007EC9BFCE99A97
:10094400F90FD8E0E4C9FAE4CCFB2275F010EF2FDC
:10095400FFEE33FEED33FDCC33CCC833C810D707DC
:100964009BEC9AE899400AED9BFDEC9AFCE899F817
:0E0974000FD5F0DAE4CDFBE4CCFAE4C8F922AA
:1015DF00C2D5E830E70FB2D5E4C39BFBE49AFAE437
:1015EF0099F9E498F8EC30E717B2D51216151208EE
:1015FF00F0E4C39BFBE49AFAE499F9E498F88003CA
:10160F001208F030D50DE4C39FFFE49EFEE49DFD6C
:04161F00E49CFC2229
:10098200E8600FECC313FCED13FDEE13FEEF13FF53
:03099200D8F12277
:10099500E86010ECA2E713FCED13FDEE13FEEF1378
:0409A500FFD8F02265
:1009A900E493FC740193FD740293FE740393FF2294
:0C09B900ECF0A3EDF0A3EEF0A3EFF022B1
:0C09C500A42582F582E5F03583F583223D
:0609D1008A838982E473B1
:10126100021505E493A3F8E493A34003F68001F289
:1012710008DFF48029E493A3F85407240CC8C3338E
:10128100C4540F4420C8834004F456800146F6DF5D
:10129100E4800B0102040810204080900FACE47E32
:1012A100019360BCA3FF543F30E509541FFEE49352
:1012B100A360010ECF54C025E060A840B8E493A319
:1012C100FAE493A3F8E493A3C8C582C8CAC583CA44
:1012D100F0A3C8C582C8CAC583CADFE9DEE780BEFC
:01107A000075
:00000001FF
