:1016390000A8C0003F065B4F666D7D077F6F0008FD
:1016490040014148BF86DBCFE6EDFD87FFEF777CA0
:100FB2007F04121426BF0105432D018006BF0203E0
:100FC200532DFE7F01121426BF0105432D02800618
:100FD200BF0203532DFD7F05121426BF0105432DC9
:100FE200048006BF0203532DFB7F02121426BF01A9
:100FF20005432D088006BF0203532DF7E4FF1214A8
:10100200B0BF01037530017F011214B0BF01037537
:101012002E017F021214B0BF0103752F01752AAA97
:10102200752B02852D2CE5306003432C10E52E60D4
:1010320003432C20E52F6003432C407B007A007988
:101042002A7D0312152FEF64036007E4F530F52EB5
:02105200F52F78
:011054002279
:101398001216B27D07E4FF1217217F8012175975C4
:1013A800250A75260A75270A75280A75290A7B0AE7
:1013B8007D0A7F1A1216591216797F981215AC7F7A
:1013C8002B1216DE7BFF7A0F79B27F021211FF1201
:0713D800175F12156E80FB88
:091718008B88898C88898F8889EF
:100E530052007A868600868600868600868600860D
:090E6300860086860041006F093B
:03002B0002175366
:0617530053BCEFD20F327F
:0209AE001536FC
:1009B000200F03020B57C20F90006EE0B4090040F5
:1009C00003020B399009CBF8282873020A12020996
:1009D000E60209F8020A240209E60209F8020A3BC3
:1009E0000209E60209F8AFBDEFFEADBE7C00E42DC2
:1009F000FFEC3E900070803CAFBDEFFEADBE7C00D2
:100A0000E42DFFEC3E900072F0A3EFF0753101028F
:100A10000B3FAFBDEFFEADBE7C00E42DFFEC3E9082
:100A200000748010AFBDEFFEADBE7C00E42DFFEC86
:100A30003E900076F0A3EFF0020B3FAFBDEFFEADAE
:100A4000BE7C00E42DFFEC3E900078F0A3EFF09028
:100A50000078E0FEA3E07807CEC313CE13D8F9A840
:100A600036F6C394065013A836E675F003A4247A2C
:100A7000F582E43400F583E014F090006FE014F0A8
:100A80006003020B3F7409F0A836E4F6A836E6FFCF
:100A9000C394064003020B3FEF75F003A4247AF5DC
:100AA00082E43400F583E0C39480502AE6FF75F0B9
:100AB00003A4247BF582E43400F583E0D3948040E2
:100AC00040EF75F003A4247CF582E43400F58374D0
:100AD00001F0F532802BA836E6FF75F003A4247BE5
:100AE000F582E43400F583E0C394805014EF75F090
:100AF00003A4247CF582E43400F5837402F075329B
:100B000001A836E6FF75F003A4247AF582E43400E8
:100B1000F583E0FEEF75F003A4247BF582E4340056
:100B2000F583EEF0E675F003A4247AF582E4340050
:100B3000F5837486F006020A8C90006E74FFF090C4
:100B4000006EE0D39407400374FFF090006EE00461
:070B5000F090171893F5BCAB
:030B57000536223E
:0216EE001536AF
:0916F000A836A632E4F532E6FF4B
:0316F90005362291
:0216FC001536A1
:0916FE00A836A631E4F531E6FF3F
:0317070005362282
:1015AC008F9D75BC88439720D2AD90004574FFF099
:1015BC00A37409F0A374AEF0A374FFF0A37416F037
:1015CC00A374EEF0A374FFF0A37416F0A374FCF0F4
:0115DC0022EC
:071745007B017A007970229C
:10142600C3EF64809480403BD3EF6480948550334F
:10143600EFFD3395E0FC90007C75F003ED1208CECD
:10144600EC75F003A42583F583E0FE90007C75F02F
:1014560003ED1208CEEC75F003A42583F583E4F0C2
:05146600AF06227F0328
:01146B00225E
:100D6A00E4F580900097E0FFB40800505F900D7E94
:100D7A00F8282873020D96020D9C020DA2020DA8F6
:100D8A00020DAE020DB8020DC2020DCCC2A3C2A260
:100D9A008016C2A3C2A2801AC2A3C2A2801EC2A384
:100DAA00C2A28022C2A3D2A2C2A1C2A08020C2A390
:100DBA00D2A2C2A1D2A08016C2A3D2A2D2A1C2A09C
:100DCA00800CC2A3D2A2D2A1D2A08002D2A3C3EF26
:100DDA00648094885029900097E0FF3395E0FE7470
:100DEA008E2FF58274003EF583E0FF3395E0FE74A2
:100DFA003D2FF58274163EF583E493F580801E90AC
:100E0A000097E0FFB408133395E0FE748E2FF58245
:100E1A0074003EF583E0F5808003E4F58090008D50
:100E2A00E0FF900097E004FEF0D3EF6480F8EE64F0
:100E3A0080984014E0D36480948850047408F022A7
:090E4A0090008CE0900097F0226A
:1016B200E4F5937594FF5395F043960F90002A74C6
:0B16C200FFF0A3740DF0A3746AF02287
:0917210090008CEFF0A3EDF02222
:1016590090008EEFF0A3EDF0A3EBF0A3E525F0A346
:10166900E526F0A3E527F0A3E528F0A3E529F02274
:06175900900096EFF02263
:100E6C0001350049009994940094940094940041A5
:030E7C0000981EBD
:020B5A0015364E
:100B5C0020B206900099E014F020B30690009CE0BF
:100B6C0014F020970690009FE014F0900098E01489
:100B7C00F06003020C7A741EF0A836E4F6A836E690
:100B8C00FFC3648094834003020C7AEF3395E0FE3C
:100B9C0090009975F003EF1208CEEE75F003A425C2
:100BAC0083F583E0C39480503990009A75F003EF7D
:100BBC001208CEEE75F003A42583F583E0D3948060
:100BCC00405AE6FF3395E0FE90009B75F003EF1260
:100BDC0008CEEE75F003A42583F5837401F0F5358A
:100BEC00803AA836E6FF3395E0FE90009A75F00344
:100BFC00EF1208CEEE75F003A42583F583E0C394C1
:100C0C0080501990009B75F003EF1208CEEE75F032
:100C1C0003A42583F5837402F0753501A836E6FF2D
:100C2C00FD3395E0FC90009975F003ED1208CEECC5
:100C3C0075F003A42583F583E0FE90009A75F0030C
:100C4C00ED1208CEEC75F003A42583F583EEF0EFDE
:100C5C003395E0FE90009975F003EF1208CEEE7517
:0E0C6C00F003A42583F5837494F006020B892F
:030C7A000536221A
:02170A00153692
:09170C00A836A635E4F535E6FF28
:0317150005362274
:1016790090003074FFF0A37417F0A3740AF090007F
:0D1689002D74FFF0A3740BF0A3745AF0222F
:1014B000EF600764016003BF0233EFFD3395E0FC8A
:1014C00090009B75F003ED1208CEEC75F003A42597
:1014D00083F583E0FE90009B75F003ED1208CEECDF
:0F14E00075F003A42583F583E4F0AF06227F03A4
:0114EF0022DA
:100E7F004100000A4100290A41006D0A040E0000DA
:100E8F0000000114004600670000FFFF8FFFC10D37
:100E9F00C105C108C101C10E60240005FF176EFF17
:100EAF00176EFF176EFF176EFF176EFF176EFF1788
:100EBF006EFF176EFF176EFF176EFF176EFF176E21
:100ECF006036002AFF176EFF176EFF1765FF176E4C
:100EDF00FF1765FF176EFF1765FF176EFF176EFF82
:100EEF00176EFF1765FF1765FF1765FF1765FF176C
:0A0EFF006EFF176EFF176EFF176EEF
:01176E002258
:031765007F0022E0
:1013DF00438E805389F07BE07A287901780090164C
:1013EF00391208B212146CEFF404F58A7BE07A28F4
:1013FF00790178009016391208B212146CC3E49F69
:10140F00FFE49EFE74019DFDE49CFC780812089E8B
:07141F008F8CD28CD2A922B0
:03000B0002134697
:04134600C0E0C0D073
:10134A00D5080A75084C300D020514D20DA2037295
:10135A00045036150AE50A7030850C0AD207300A9D
:10136A0017E50D6007150D438F01801D538FFEC2CF
:10137A00B5D51615C20A8011050BE50BD3940640A4
:09138A0008C203E5136002D2065B
:05139300D0D0D0E032D3
:1012F300300E47C20E9016391208B2781012089EAB
:101303008E338F34900003E0FEA3E0FFE4FCFD7B0B
:1013130019FAF9F812084FC006C007AE33AF34AB61
:1013230007AA06E4F9F8D007D00612146C78031262
:10133300089E900065EEF0A3EFF0900065E0FEA339
:02134300E0FFC9
:011345002285
:09172A00900067E0FEA3E0FF223D
:09173300900067EEF0A3EFF02234
:1016CD0090006BEEF0A3EFF0900069ECF0A3EDF05D
:0116DD0022EA
:03176800C2B422E6
:03003B00020F0AA7
:100F0A00C0E0C083C082C0D075D000C004C005C094
:030F1A0006C00707
:100F1D0030DF04C2DF807D30DA04C2DA807630D96A
:100F2D003DC2D9AFFBEFFEADEB7C00E42DFFEC3EF7
:100F3D0020000E900001F0A3EFF075DB11D20080C0
:100F4D0053FE900001E0FCA3E0FDC3EF9DFFEE9C7E
:100F5D00A3F0A3EFF075DB00C200D20E803630D8BF
:100F6D0033C2D8900067E07002A3E06022B2B49063
:100F7D000069E0FEA3E0F5EAEEF5FAA3E0FEA3E0DA
:100F8D00FF90006AE02FF0900069E03EF08005C20E
:040F9D00B453DAFE71
:100FA100D007D006D005D004D0D0D082D083D0E0F5
:010FB100320D
:06175F001213DFD2AF22DD
:101174003004047F0180027F00200A047E01800283
:101184007E00EE5F6074E515C39509506830023641
:10119400750D01E515131313541FAB17AA18A919DC
:1011A400F582758300120800FFE515540704FEEF6D
:1011B400A806088002C333D8FC30D705751603800F
:1011C4002F751601802AAB17AA18A91975F002E524
:1011D40015A4F58285F083120800F50DE51575F068
:1011E40002A429F9EA35F0FA900001120800F51674
:0A11F4000515D20A22C204438F1031
:0111FE0022CE
:100C7D00900000E014F0701F740AF0D20590002966
:100C8D00E014F07012740AF0D20890006DE014F0C8
:100C9D007005740AF0D20190002AA3E0FAA3E0F9DE
:100CAD001208DA90002DA3E0FAA3E0F91208DA9009
:100CBD000039A3E0FAA3E0F91208DA900045A3E0A9
:100CCD00FAA3E0F91208DA900054A3E0FAA3E0F9D0
:100CDD001208DA90005DA3E0FAA3E0F91208DA90A9
:100CED00004BA3E0FAA3E0F91208DAEF600C9000D4
:100CFD001DA3E0FAA3E0F91208DA90004EA3E0FA82
:100D0D00A3E0F91208DAEF600E900020A3E0FAA339
:100D1D00E0F91208DAD20BE512D394004016D51281
:100D2D003030090C900023A3E0FAA3E0F91208DAA1
:100D3D00D20C801D900051A3E0FAA3E0F91208DA5D
:100D4D00EF600E900023A3E0FAA3E0F91208DAD2C7
:0D0D5D000C900005A3E0FAA3E0F90208DA0B
:1010550090003FA3E0FAA3E0F91208DA900042A35A
:10106500E0FAA3E0F91208DA900033A3E0FAA3E06E
:10107500F91208DA900008A3E0FAA3E0F91208DAF9
:10108500900030A3E0FAA3E0F91208DAEF600C90C3
:101095000011A3E0FAA3E0F91208DA900036A3E004
:1010A500FAA3E0F91208DAEF600C900017A3E0FA52
:1010B500A3E0F91208DA900048A3E0FAA3E0F912D8
:1010C50008DAEF600C90001AA3E0FAA3E0F9120821
:1010D500DA30060EC206900026A3E0FAA3E0F91264
:0310E50008DA2204
:1014F00090000BA3E0FAA3E0F91208DA90003CA3F5
:10150000E0FAA3E0F91208DAEF600C900014A3E00F
:10151000FAA3E0F91208DA900057A3E0FAA3E0F981
:0F1520001208DA90005AA3E0FAA3E0F90208DA01
:10160E00AF11AE10AD0FAC0E9000601208C290007C
:10161E0064E514F0E4F511F510F50FF50EF51490E0
:0B162E00000EA3E0FAA3E0F90208DAC6
:10156E00300705C207121174300D05C20D120C7D25
:10157E00300505C205121055300805C2081214F0C8
:10158E00300105C20112160EE5112401F511E435E4
:0E159E0010F510E4350FF50FE4350EF50E22B2
:1011FF008B228A238924EFB40C005070901212F8BE
:10120F0028287302123602123B02124002124502C4
:10121F00124A02124F02125402125902125E0212A5
:10122F006302126802126D900005803590000880ED
:10123F003090000B802B90000E80269000118021A3
:10124F00900017801C900014801790001A80129045
:10125F00001D800D900020800890002380039000D7
:0D126F0026E522F0A3E523F0A3E524F022FC
:07174C007B017A00796022A5
:1016DE0053B1DF43B220C2B5C20A8F0C438F102222
:0300530002127C1A
:10127C00C0E0C083C082C0D075D000C000C001C027
:03128C0002C0039A
:10128F00200313D203751B08751300751A00E50CA4
:10129F00C313F50A803AE50BC394014031E51A25D3
:1012AF00E0F51AE50BC394034002051AD51B21E59F
:1012BF0013C3951C501A751B08AB1DAA1EA91F85B9
:1012CF001382758300E51A12082D05138002C203DD
:0312DF00750B008C
:1012E200D003D002D001D000D0D0D082D083D0E0C1
:0112F20032C9
:09173C008B1D8A1E891F8D1C22E1
:03176B00AF132297
:1015DD002003047F0180027F00200A047E01800227
:1015ED007E00EE5F60188B178A188919EDC313F50D
:1015FD0009C202E4F515538FEFD2047F02227F0357
:01160D0022BA
:10152F002003047F0180027F00200A047E018002D5
:10153F007E00EE5F6026538FEF750D10751608D283
:10154F000A438F018B178A188919ED75F008A404C7
:0F155F00F509D202E4F515D2047F02227F0322A0
:101696002003047F0180027F00200A047E0180026D
:0C16A6007E00EE5F60037F00227F0122C7
:030000000210E803
:0C10E800787FE4F6D8FD75813602112FE8
:10080000BB010CE58229F582E5833AF583E02250AD
:1008100006E92582F8E622BBFE06E92582F8E222F7
:0D082000E58229F582E5833AF583E4932211
:10082D00F8BB010DE58229F582E5833AF583E8F001
:10083D00225006E92582C8F622BBFE05E92582C8AD
:02084D00F22295
:10084F00E88FF0A4CC8BF0A42CFCE98EF0A42CFC48
:10085F008AF0EDA42CFCEA8EF0A4CDA8F08BF0A4C6
:10086F002DCC3825F0FDE98FF0A42CCD35F0FCEB25
:10087F008EF0A4FEA9F0EB8FF0A4CFC5F02ECD39EA
:0F088F00FEE43CFCEAA42DCE35F0FDE43CFC2257
:10146C00C2D5E830E70FB2D5E4C39BFBE49AFAE4AB
:10147C0099F9E498F8EC30E717B2D51214A21209D6
:10148C001CE4C39BFBE49AFAE499F9E498F8800312
:10149C0012091C30D50DE4C39FFFE49EFEE49DFDB4
:0414AC00E49CFC229E
:10089E00E86010ECA2E713FCED13FDEE13FEEF1370
:0408AE00FFD8F0225D
:1008B200E493FC740193FD740293FE740393FF228C
:0C08C200ECF0A3EDF0A3EEF0A3EFF022A9
:0C08CE00A42582F582E5F03583F5832235
:0608DA008A838982E473A9
:1010F400021398E493A3F8E493A34003F68001F267
:1011040008DFF48029E493A3F85407240CC8C333FC
:10111400C4540F4420C8834004F456800146F6DFCB
:10112400E4800B0102040810204080900E53E47EFA
:10113400019360BCA3FF543F30E509541FFEE493C0
:10114400A360010ECF54C025E060A840B8E493A387
:10115400FAE493A3F8E493A3C8C582C8CAC583CAB2
:10116400F0A3C8C582C8CAC583CADFE9DEE780BE6A
:010F090000E7
:1008E00075F008758200EF2FFFEE33FECD33CDCCCF
:1008F00033CCC58233C5829BED9AEC99E582984052
:100900000CF582EE9BFEED9AFDEC99FC0FD5F0D62E
:10091000E4CEFBE4CDFAE4CCF9A88222B800C1B958
:100920000059BA002DEC8BF084CFCECDFCE5F0CB96
:10093000F97818EF2FFFEE33FEED33FDEC33FCEBCF
:1009400033FB10D703994004EB99FB0FD8E5E4F98A
:10095000FA227818EF2FFFEE33FEED33FDEC33FC77
:10096000C933C910D7059BE99A4007EC9BFCE99A6B
:10097000F90FD8E0E4C9FAE4CCFB2275F010EF2FB0
:10098000FFEE33FEED33FDCC33CCC833C810D707B0
:100990009BEC9AE899400AED9BFDEC9AFCE899F8EB
:0E09A0000FD5F0DAE4CDFBE4CCFAE4C8F9227E
:00000001FF
