:101A2B0000A8C0003F065B4F666D7D077F6F000807
:101A3B0040014148BF86DBCFE6EDFD87FFEF00039A
:021A4B000F3F4B
:06104E000128AA012CFF9D
:101B5200EFD3940340027F03EF901A4993FF021CD4
:011B6200245E
:0D1BBD00121BD6EF70047F0180027F002212
:101B20007B007A0079257D037C00121929EF64037C
:091B300060047F0180027F0022A5
:10195800E52264AA7027E52364D27021AF24121B04
:1019680052E52CF46014E524C3952C500DE5247041
:0E197800047F0480027F0212198685242C222F
:031C3000021C395A
:1011D8007F04121741BF01054329018006BF02039E
:1011E8005329FE7F01121741BF01054329028006DA
:1011F800BF02035329FD7F05121741BF010543298B
:10120800048006BF02035329FB7F02121741BF0166
:10121800054329088006BF02035329F7E4FF121784
:10122800CBBF0108752D01E4FF1219867F01121743
:10123800CBBF0103752A017F021217CBBF010375CB
:101248002B01E529600B121BE1EF70057F011219D4
:10125800867525AA752602852927E52D600343276B
:1012680010E52A6003432720E52B6003432740123B
:101278001BBDEF600D121B20EF6007E4F52DF52A6A
:02128800F52B44
:01128A002241
:1014DD00121B057D07E4FF121BF5E4FF121C24759A
:1014ED00310A75320A75330A75340A75350A7B0A65
:1014FD007D0A7F02121A6E121AAE7F981218C7E477
:10150D00F5327F807E25FDFC121123753300753475
:10151D00007535287536007537017B007A00792204
:10152D007D037C001218F8121B747BFF7A1C793036
:10153D007F011215607BFF7A1179D87F0212156039
:10154D007BFF7A1979587F0A121560121C2A12181E
:03155D008980FB87
:091BEC008B88898C88898F888917
:1010540052007A868600868600868600868600860A
:09106400860086860041006F0938
:03002B00021C1E96
:061C1E0053BCEFD20F32AF
:020BA900153EF7
:100BAB00200F03020D52C20F90006EE0B4090040FB
:100BBB0003020D34900BC6F8282873020C0D020BA0
:100BCB00E1020BF3020C1F020BE1020BF3020C36DA
:100BDB00020BE1020BF3AFBDEFFEADBE7C00E42DCB
:100BEB00FFEC3E900070803CAFBDEFFEADBE7C00D5
:100BFB00E42DFFEC3E900072F0A3EFF0753801028C
:100C0B000D3AAFBDEFFEADBE7C00E42DFFEC3E9088
:100C1B0000748010AFBDEFFEADBE7C00E42DFFEC89
:100C2B003E900076F0A3EFF0020D3AAFBDEFFEADB4
:100C3B00BE7C00E42DFFEC3E900078F0A3EFF0902B
:100C4B000078E0FEA3E07807CEC313CE13D8F9A843
:100C5B003EF6C394065013A83EE675F003A4247A1F
:100C6B00F582E43400F583E014F090006FE014F0AB
:100C7B006003020D3A7409F0A83EE4F6A83EE6FFC5
:100C8B00C394064003020D3AEF75F003A4247AF5E2
:100C9B0082E43400F583E0C39480502AE6FF75F0BC
:100CAB0003A4247BF582E43400F583E0D3948040E5
:100CBB0040EF75F003A4247CF582E43400F58374D3
:100CCB0001F0F539802BA83EE6FF75F003A4247BD9
:100CDB00F582E43400F583E0C394805014EF75F093
:100CEB0003A4247CF582E43400F5837402F0753997
:100CFB0001A83EE6FF75F003A4247AF582E43400E4
:100D0B00F583E0FEEF75F003A4247BF582E4340059
:100D1B00F583EEF0E675F003A4247AF582E4340053
:100D2B00F5837486F006020C8790006E74FFF090CA
:100D3B00006EE0D39407400374FFF090006EE00464
:070D4B00F0901BEC93F5BCD6
:030D5200053E2239
:021B9300153EFD
:091B9500A83EA639E4F539E6FF8B
:031B9E00053E22DF
:021BA100153EEF
:091BA300A83EA638E4F538E6FF7F
:031BAC00053E22D1
:1018C7008F9D75BC88439720D2AD90004574FFF07B
:1018D700A3740BF0A374A9F0A374FFF0A3741BF017
:1018E700A37493F0A374FFF0A3741BF0A374A1F087
:0118F70022CE
:071C10007B017A00797022CC
:10174100C3EF64809480403BD3EF64809485503331
:10175100EFFD3395E0FC90007C75F003ED1209C5B7
:10176100EC75F003A42583F583E0FE90007C75F011
:1017710003ED1209C5EC75F003A42583F583E4F0AC
:05178100AF06227F030A
:011786002240
:100F6500E4F5809000ACE0FFB40800505F900F7985
:100F7500F8282873020F91020F97020F9D020FA305
:100F8500020FA9020FB3020FBD020FC7C2A3C2A26F
:100F95008016C2A3C2A2801AC2A3C2A2801EC2A387
:100FA500C2A28022C2A3D2A2C2A1C2A08020C2A393
:100FB500D2A2C2A1D2A08016C2A3D2A2D2A1C2A09F
:100FC500800CC2A3D2A2D2A1D2A08002D2A3C3EF29
:100FD5006480948850299000ACE0FF3395E0FE745E
:100FE500A32FF58274003EF583E0FF3395E0FE7490
:100FF5002F2FF582741A3EF583E493F580801E90B9
:1010050000ACE0FFB408133395E0FE74A32FF5821E
:1010150074003EF583E0F5808003E4F5809000A23E
:10102500E0FF9000ACE004FEF0D3EF6480F8EE64DE
:1010350080984014E0D36480948850047408F022AA
:091045009000A1E09000ACF02243
:101B0500E4F5937594FF5395F043960F90002A746E
:0B1B1500FFF0A3740FF0A37465F02232
:091BF5009000A1EFF0A3EDF02235
:101A6E009000A3EFF0A3EDF0A3EBF0A3E531F0A30C
:101A7E00E532F0A3E533F0A3E534F0A3E535F0222B
:061C24009000ABEFF0227E
:10106D00011F004900AE94940094940094940041A3
:03107D0000AD1EA5
:020D5500153E49
:100D570020B2069000AEE014F020B3069000B1E098
:100D670014F02097069000B4E014F09000ADE01462
:100D7700F06003020E75741EF0A83EE4F6A83EE686
:100D8700FFC3648094834003020E75EF3395E0FE42
:100D97009000AE75F003EF1209C5EE75F003A425B8
:100DA70083F583E0C3948050399000AF75F003EF6B
:100DB7001209C5EE75F003A42583F583E0D394806B
:100DC700405AE6FF3395E0FE9000B075F003EF124E
:100DD70009C5EE75F003A42583F5837401F0F51FAB
:100DE700803AA83EE6FF3395E0FE9000AF75F0032A
:100DF700EF1209C5EE75F003A42583F583E0C394CC
:100E07008050199000B075F003EF1209C5EE75F028
:100E170003A42583F5837402F0751F01A83EE6FF3E
:100E2700FD3395E0FC9000AE75F003ED1209C5ECBB
:100E370075F003A42583F583E0FE9000AF75F003FA
:100E4700ED1209C5EC75F003A42583F583EEF0EFE9
:100E57003395E0FE9000AE75F003EF1209C5EE750D
:0E0E6700F003A42583F5837494F006020D8435
:030E7500053E2215
:021BAF00153EE1
:091BB100A83EA61FE4F51FE6FFA3
:031BBA00053E22C3
:101AAE0090003074FFF0A3741BF0A374AFF090009D
:0D1ABE002D74FFF0A3740DF0A37455F022F9
:1017CB00EF600764016003BF0233EFFD3395E0FC6C
:1017DB009000B075F003ED1209C5EC75F003A4256C
:1017EB0083F583E0FE9000B075F003ED1209C5ECB4
:0F17FB0075F003A42583F583E4F0AF06227F0386
:01180A0022BB
:101080004100000A4100290A41006D0A040E0000D7
:1010900000000114004600670000FFFF8FFFC10D34
:1010A000C105C108C101C10E60240005FF1C3CFF41
:1010B0001C3CFF1C3CFF1C3CFF1C3CFF1C3CFF1C61
:1010C0003CFF1C3CFF1C3CFF1C3CFF1C3CFF1C3C31
:1010D0006036002AFF1C3CFF1C3CFF1C33FF1C3CFD
:1010E000FF1C33FF1C3CFF1C33FF1C3CFF1C3CFF60
:1010F0001C3CFF1C33FF1C33FF1C33FF1C33FF1C45
:0A1100003CFF1C3CFF1C3CFF1C3CA4
:011C3C002285
:031C33007F00220D
:1016FA00438E805389F07BE07A2879017800901A2A
:10170A002B1209A9121787EFF404F58A7BE07A28CD
:10171A0079017800901A2B1209A9121787C3E49F3E
:10172A00FFE49EFE74019DFDE49CFC780812099575
:07173A008F8CD28CD2A92292
:03000B000216A832
:0416A800C0E0C0D00E
:1016AC00D5080A75084C300D020514D20DA2037230
:1016BC00045036150AE50A7030850C0AD207300A38
:1016CC0017E50D6007150D438F01801D538FFEC26A
:1016DC00B5D51615C20A8011050BE50BD39406403F
:0916EC0008C203E5136002D206F6
:0516F500D0D0D0E0326E
:10165500300E47C20E901A2B1209A978101209955F
:101665008E3A8F3B900003E0FEA3E0FFE4FCFD7B98
:1016750019FAF9F8120865C006C007AE3AAF3BABD8
:1016850007AA06E4F9F8D007D006121787780312DF
:101695000995900065EEF0A3EFF0900065E0FEA3DC
:0216A500E0FF64
:0116A7002220
:091BFE00900067E0FEA3E0FF2265
:091C0700900067EEF0A3EFF0225B
:101B630090006BEEF0A3EFF0900069ECF0A3EDF0C2
:011B7300224F
:031C3600C2B42213
:03003B0002128B23
:10128B00C0E0C083C082C0D075D000C004C005C010
:03129B0006C00783
:10129E0030DF04C2DF807D30DA04C2DA807630D9E6
:1012AE003DC2D9AFFBEFFEADEB7C00E42DFFEC3E73
:1012BE0020000E900001F0A3EFF075DB11D200803C
:1012CE0053FE900001E0FCA3E0FDC3EF9DFFEE9CFA
:1012DE00A3F0A3EFF075DB00C200D20E803630D83B
:1012EE0033C2D8900067E07002A3E06022B2B490DF
:1012FE000069E0FEA3E0F5EAEEF5FAA3E0FEA3E056
:10130E00FF90006AE02FF0900069E03EF08005C289
:04131E00B453DAFEEC
:10132200D007D006D005D004D0D0D082D083D0E070
:011332003288
:061C2A001216FAD2AF22EF
:101452003004047F0180027F00200A047E018002A2
:101462007E00EE5F6074E515C39509506830023660
:10147200750D01E515131313541FAB17AA18A919FB
:10148200F582758300120800FFE515540704FEEF8C
:10149200A806088002C333D8FC30D705751603802E
:1014A2002F751601802AAB17AA18A91975F002E543
:1014B20015A4F58285F083120800F50DE51575F087
:1014C20002A429F9EA35F0FA900001120800F51693
:0A14D2000515D20A22C204438F1050
:0114DC0022ED
:100E7800900000E014F0701F740AF0D20590002969
:100E8800E014F07012740AF0D20890006DE014F0CB
:100E98007005740AF0D20190002AA3E0FAA3E0F9E1
:100EA8001209D190002DA3E0FAA3E0F91209D1901C
:100EB8000039A3E0FAA3E0F91209D1900045A3E0B4
:100EC800FAA3E0F91209D1900054A3E0FAA3E0F9DB
:100ED8001209D190005DA3E0FAA3E0F91209D190BC
:100EE800004BA3E0FAA3E0F91209D1EF600C9000DF
:100EF8001DA3E0FAA3E0F91209D190004EA3E0FA8D
:100F0800A3E0F91209D1EF600E900020A3E0FAA344
:100F1800E0F91209D1D20BE512D394004016D5128C
:100F28003030090C900023A3E0FAA3E0F91209D1AC
:100F3800D20C801D900051A3E0FAA3E0F91209D168
:100F4800EF600E900023A3E0FAA3E0F91209D1D2D2
:0D0F58000C900005A3E0FAA3E0F90209D116
:1013330090003FA3E0FAA3E0F91209D1900042A381
:10134300E0FAA3E0F91209D1900033A3E0FAA3E095
:10135300F91209D1900008A3E0FAA3E0F91209D128
:10136300900030A3E0FAA3E0F91209D1EF600C90EA
:101373000011A3E0FAA3E0F91209D1900036A3E02B
:10138300FAA3E0F91209D1EF600C900017A3E0FA79
:10139300A3E0F91209D1900048A3E0FAA3E0F912FF
:1013A30009D1EF600C90001AA3E0FAA3E0F9120947
:1013B300D130060EC206900026A3E0FAA3E0F9128C
:0313C30009D1222B
:10180B0090000BA3E0FAA3E0F91209D190003CA3DE
:10181B00E0FAA3E0F91209D1EF600C900014A3E0F9
:10182B00FAA3E0F91209D1900057A3E0FAA3E0F96B
:0F183B001209D190005AA3E0FAA3E0F90209D1F3
:1019B400AF11AE10AD0FAC0E9000601209B99000DB
:1019C40064E514F0E4F511F510F50FF50EF5149037
:0B19D400000EA3E0FAA3E0F90209D125
:10188900300705C207121452300D05C20D120E7829
:10189900300505C205121333300805C20812180BAA
:1018A900300105C2011219B4E5112401F511E4351D
:0E18B90010F510E4350FF50FE4350EF50E2294
:101560008B2E8A2F8930EFB40C005070901573F8D1
:1015700028287302159702159C0215A10215A602D0
:1015800015AB0215B00215B50215BA0215BF02154A
:10159000C40215C90215CE90000580359000088060
:1015A0003090000B802B90000E802690001180213F
:1015B000900017801C900014801790001A801290E1
:1015C000001D800D90002080089000238003900073
:0D15D00026E52EF0A3E52FF0A3E530F02274
:071C17007B017A00796022D5
:10110A0055008C00000000000000000000000000F4
:08111A000000010000000000CC
:030043000209D7D8
:1009D700C0E0C0F0C083C082C0D075D000C000C0E6
:1009E70001C002C003C004C005C006C007E59A30B5
:1009F700E142539AFD900091E0FEA3E0FFC390000F
:100A070090E09F90008FE09E501F90008CE0FBA32A
:100A1700E0FAA3E0F9A3E475F00112084F85F0822C
:100A2700F583120800F59B800B900093E4F0E53DF9
:100A37006002C2B7E59A20E003020B8E539AFE309C
:100A47000C0BC20C900099E4F0A3F0D209E53D64C9
:100A5700026003020AE8900097E0FEA3E0FFA3E02C
:100A6700FCA3E0FDC39FEC9E5071900094E0FBA3B4
:100A7700E0FAA3E0F98D828C83E59B12082D9000A4
:100A87009FE0FEA3E0FFC3ED9FEC9E5040900097D0
:100A9700E0FCA3E0FDEF9DEE9C503290009CE0FB54
:100AA700A3E0FAA3E0F9900099E0FEA3E0FFF58246
:100AB7008E83120800FD900094E0FBA3E0FAA3E008
:100AC700F98F828E831208006D6002C20990009A26
:100AD700E004F07006900099E004F0853C12020BE8
:100AE7008E900097E0FEA3E0FFA3E0FCA3E0FDC328
:100AF7009FEC9E5077900094E0FBA3E0FAA3E0F907
:100B07008D828C83E59B12082D90009FE0FEA3E069
:100B1700FFC3ED9FEC9E5046900097E0FCA3E0FDDD
:100B2700EF9DEE9C503890009CE0FBA3E0FAA3E019
:100B3700F9900099E0FEA3E0FFF5828E831208008A
:100B4700FD900094E0FBA3E0FAA3E0F98F828E8387
:100B57001208006D600890009974FFF0A3F09000F0
:100B67009AE004F07006900099E004F0900097E096
:100B7700FEA3E0FFC390009AE09F900099E09E409B
:100B87000690009B7401F0D007D006D005D004D0A2
:100B970003D002D001D000D0D0D082D083D0F0D003
:020BA700E0323A
:021B8400153E0C
:0A1B860090009BE0A83EF6FFE4F09B
:031B9000053E22ED
:011C3D002284
:101123008F318E308D2F8C2E85323DE53D700280C0
:101133000343BA01E53D701790005D74FFF0A3749B
:101143001CF0A3743DF0E4F5DBD290D2918020C271
:10115300B7AB31AA30A92FA82EE47F407E9CFDFCBB
:101163001208F08F3CE53C7003753C01853C127519
:101173009A10E47B04FAF9F8901A2B1209A91208C1
:10118300F0AB31AA30A92FA82E1208F0EFF404F522
:10119300D7E47B04FAF9F8901A2B1209A91208F084
:1011A300AB31AA30A92FA82E1208F0C3E49FFFE4A5
:1011B3009EFE74019DFDE49CFC78081209828FD683
:1011C300438E1443AF0190005174FFF0A3741BF0DE
:0511D300A37484F0226A
:1018F800900094EBF0A3EAF0A3E9F0A3ECF0A3EDD9
:10190800F090009FE536F0A3E537F090009CE533B2
:10191800F0A3E534F0A3E535F0D20CE490009BF099
:01192800229C
:10192900900093E0702690008CEBF0A3EAF0A3E915
:10193900F0E4A3F0A3F0A3ECF0A3EDF0A37401F09D
:0F194900E53D6002D2B7439A027F02227F03225C
:0B1BD600900093E07002FF227F0122CC
:101A070005DC0503200201F41404B00804B008053E
:101A1700DC0A01F40A0001020305010101020203C5
:041A270001020203B3
:101ACB00E51E901A1C93251D75F003A42407F582BF
:0D1ADB00E4341AF583E493FE740193FF22B6
:101B3900E51E901A1C93251D75F003A42409F5824E
:091B4900E4341AF583E493FF2251
:101A4D00121B398F2E121ACBAD2E7C001215DDBF55
:101A5D00020C751B02E52E240AF51A7F01227F0068
:011A6D002256
:101AE800051DE51E901A2193FFE51DC39F4007E4DD
:0D1AF800F51B751EFF22751B03751C0122D6
:10184A00E51B24FE60101460242402702E121BCAA9
:10185A00EF702B021A4D121BCAEF7003021AE8E549
:10186A001A601BD51A18E4F51B751EFF22E51C60C9
:0F187A0002151CE51C7007751B0122E4F51B22EB
:101B7400121A8EE4F51B751EFFF51DF51CF51A22CD
:10198600EFC394055027E51B600DE51E901A2693BC
:10199600FEEF93C39E40168F1EE4F51D121BCAEF81
:0E19A6007008121A4DEF70058000751B0122AB
:0B1BE100E51B60047F0180027F0022F2
:031C390002184A44
:0419DF00153E153E5E
:1019E300121BFEA83EA60608A607A83EE6FE08E6CA
:0F19F300FF4E600BEF24FFFFEE34FFFE121C07C8
:051A0200053E053E2237
:101A8E0053B1EF43B210121C36E4F5D975DA49D2D0
:101A9E00DE90003F74FFF0A37419F0A374DFF02200
:0815DD008E2F8F308C318D320E
:1015E500121BFEEF4E7066AF32AE31121C07C3E51B
:1015F50030940AE52F9400404BE47B18FAF9F890F3
:101605001A2B1209A91208F0C006C007AE2FAF3079
:10161500AB07AA06E4F9F8D007D0061208F0AB0725
:10162500AA06AFF9EFFEADE97C00E42DFFEC3ECF55
:101635002BCF3AAD07FCAF03AE02121B63D2D843E2
:0F164500DA018006121C3653DAFE7F02227F0381
:011654002273
:0C1BCA00121BFEEF4E7002FF227F012272
:030000000213C622
:0C13C600787FE4F6D8FD75813E02140D1E
:10080000BB010CE58229F582E5833AF583E02250AD
:1008100006E92582F8E622BBFE06E92582F8E222F7
:0D082000E58229F582E5833AF583E4932211
:10082D00F8BB010DE58229F582E5833AF583E8F001
:10083D00225006E92582C8F622BBFE05E92582C8AD
:02084D00F22295
:10084F00A3F8E0C5F025F0F0E5821582700215835C
:06085F00E0C838F0E822B9
:10086500E88FF0A4CC8BF0A42CFCE98EF0A42CFC32
:100875008AF0EDA42CFCEA8EF0A4CDA8F08BF0A4B0
:100885002DCC3825F0FDE98FF0A42CCD35F0FCEB0F
:100895008EF0A4FEA9F0EB8FF0A4CFC5F02ECD39D4
:0F08A500FEE43CFCEAA42DCE35F0FDE43CFC2241
:1008B40075F008758200EF2FFFEE33FECD33CDCCFB
:1008C40033CCC58233C5829BED9AEC99E58298407E
:1008D4000CF582EE9BFEED9AFDEC99FC0FD5F0D65B
:1008E400E4CEFBE4CDFAE4CCF9A88222B800C1B985
:1008F4000059BA002DEC8BF084CFCECDFCE5F0CBC3
:10090400F97818EF2FFFEE33FEED33FDEC33FCEBFB
:1009140033FB10D703994004EB99FB0FD8E5E4F9B6
:10092400FA227818EF2FFFEE33FEED33FDEC33FCA3
:10093400C933C910D7059BE99A4007EC9BFCE99A97
:10094400F90FD8E0E4C9FAE4CCFB2275F010EF2FDC
:10095400FFEE33FEED33FDCC33CCC833C810D707DC
:100964009BEC9AE899400AED9BFDEC9AFCE899F817
:0E0974000FD5F0DAE4CDFBE4CCFAE4C8F922AA
:10178700C2D5E830E70FB2D5E4C39BFBE49AFAE48D
:1017970099F9E498F8EC30E717B2D51217BD12089B
:1017A700F0E4C39BFBE49AFAE499F9E498F8800320
:1017B7001208F030D50DE4C39FFFE49EFEE49DFDC3
:0417C700E49CFC2280
:10098200E8600FECC313FCED13FDEE13FEEF13FF53
:03099200D8F12277
:10099500E86010ECA2E713FCED13FDEE13FEEF1378
:0409A500FFD8F02265
:1009A900E493FC740193FD740293FE740393FF2294
:0C09B900ECF0A3EDF0A3EEF0A3EFF022B1
:0C09C500A42582F582E5F03583F583223D
:0609D1008A838982E473B1
:1013D2000214DDE493A3F8E493A34003F68001F240
:1013E20008DFF48029E493A3F85407240CC8C3331C
:1013F200C4540F4420C8834004F456800146F6DFEB
:10140200E4800B010204081020408090104EE47E1C
:10141200019360BCA3FF543F30E509541FFEE493DF
:10142200A360010ECF54C025E060A840B8E493A3A6
:10143200FAE493A3F8E493A3C8C582C8CAC583CAD1
:10144200F0A3C8C582C8CAC583CADFE9DEE780BE89
:0111220000CC
:00000001FF
